{
  "contractName": "HodlPigs",
  "abi": [
    {
      "inputs": [],
      "stateMutability": "nonpayable",
      "type": "constructor"
    },
    {
      "anonymous": false,
      "inputs": [
        {
          "indexed": true,
          "internalType": "address",
          "name": "owner",
          "type": "address"
        },
        {
          "indexed": true,
          "internalType": "address",
          "name": "approved",
          "type": "address"
        },
        {
          "indexed": true,
          "internalType": "uint256",
          "name": "tokenId",
          "type": "uint256"
        }
      ],
      "name": "Approval",
      "type": "event"
    },
    {
      "anonymous": false,
      "inputs": [
        {
          "indexed": true,
          "internalType": "address",
          "name": "owner",
          "type": "address"
        },
        {
          "indexed": true,
          "internalType": "address",
          "name": "operator",
          "type": "address"
        },
        {
          "indexed": false,
          "internalType": "bool",
          "name": "approved",
          "type": "bool"
        }
      ],
      "name": "ApprovalForAll",
      "type": "event"
    },
    {
      "anonymous": false,
      "inputs": [
        {
          "indexed": true,
          "internalType": "address",
          "name": "previousOwner",
          "type": "address"
        },
        {
          "indexed": true,
          "internalType": "address",
          "name": "newOwner",
          "type": "address"
        }
      ],
      "name": "OwnershipTransferred",
      "type": "event"
    },
    {
      "anonymous": false,
      "inputs": [
        {
          "indexed": false,
          "internalType": "address",
          "name": "account",
          "type": "address"
        }
      ],
      "name": "Paused",
      "type": "event"
    },
    {
      "anonymous": false,
      "inputs": [
        {
          "indexed": true,
          "internalType": "address",
          "name": "from",
          "type": "address"
        },
        {
          "indexed": true,
          "internalType": "address",
          "name": "to",
          "type": "address"
        },
        {
          "indexed": true,
          "internalType": "uint256",
          "name": "tokenId",
          "type": "uint256"
        }
      ],
      "name": "Transfer",
      "type": "event"
    },
    {
      "anonymous": false,
      "inputs": [
        {
          "indexed": false,
          "internalType": "address",
          "name": "account",
          "type": "address"
        }
      ],
      "name": "Unpaused",
      "type": "event"
    },
    {
      "inputs": [
        {
          "internalType": "address",
          "name": "to",
          "type": "address"
        },
        {
          "internalType": "uint256",
          "name": "tokenId",
          "type": "uint256"
        }
      ],
      "name": "approve",
      "outputs": [],
      "stateMutability": "nonpayable",
      "type": "function"
    },
    {
      "inputs": [
        {
          "internalType": "address",
          "name": "owner",
          "type": "address"
        }
      ],
      "name": "balanceOf",
      "outputs": [
        {
          "internalType": "uint256",
          "name": "",
          "type": "uint256"
        }
      ],
      "stateMutability": "view",
      "type": "function"
    },
    {
      "inputs": [
        {
          "internalType": "uint256",
          "name": "tokenId",
          "type": "uint256"
        }
      ],
      "name": "burn",
      "outputs": [],
      "stateMutability": "nonpayable",
      "type": "function"
    },
    {
      "inputs": [
        {
          "internalType": "uint256",
          "name": "tokenId",
          "type": "uint256"
        }
      ],
      "name": "getApproved",
      "outputs": [
        {
          "internalType": "address",
          "name": "",
          "type": "address"
        }
      ],
      "stateMutability": "view",
      "type": "function"
    },
    {
      "inputs": [
        {
          "internalType": "address",
          "name": "owner",
          "type": "address"
        },
        {
          "internalType": "address",
          "name": "operator",
          "type": "address"
        }
      ],
      "name": "isApprovedForAll",
      "outputs": [
        {
          "internalType": "bool",
          "name": "",
          "type": "bool"
        }
      ],
      "stateMutability": "view",
      "type": "function"
    },
    {
      "inputs": [],
      "name": "name",
      "outputs": [
        {
          "internalType": "string",
          "name": "",
          "type": "string"
        }
      ],
      "stateMutability": "view",
      "type": "function"
    },
    {
      "inputs": [],
      "name": "owner",
      "outputs": [
        {
          "internalType": "address",
          "name": "",
          "type": "address"
        }
      ],
      "stateMutability": "view",
      "type": "function"
    },
    {
      "inputs": [
        {
          "internalType": "uint256",
          "name": "tokenId",
          "type": "uint256"
        }
      ],
      "name": "ownerOf",
      "outputs": [
        {
          "internalType": "address",
          "name": "",
          "type": "address"
        }
      ],
      "stateMutability": "view",
      "type": "function"
    },
    {
      "inputs": [],
      "name": "paused",
      "outputs": [
        {
          "internalType": "bool",
          "name": "",
          "type": "bool"
        }
      ],
      "stateMutability": "view",
      "type": "function"
    },
    {
      "inputs": [],
      "name": "renounceOwnership",
      "outputs": [],
      "stateMutability": "nonpayable",
      "type": "function"
    },
    {
      "inputs": [
        {
          "internalType": "address",
          "name": "from",
          "type": "address"
        },
        {
          "internalType": "address",
          "name": "to",
          "type": "address"
        },
        {
          "internalType": "uint256",
          "name": "tokenId",
          "type": "uint256"
        }
      ],
      "name": "safeTransferFrom",
      "outputs": [],
      "stateMutability": "nonpayable",
      "type": "function"
    },
    {
      "inputs": [
        {
          "internalType": "address",
          "name": "from",
          "type": "address"
        },
        {
          "internalType": "address",
          "name": "to",
          "type": "address"
        },
        {
          "internalType": "uint256",
          "name": "tokenId",
          "type": "uint256"
        },
        {
          "internalType": "bytes",
          "name": "_data",
          "type": "bytes"
        }
      ],
      "name": "safeTransferFrom",
      "outputs": [],
      "stateMutability": "nonpayable",
      "type": "function"
    },
    {
      "inputs": [
        {
          "internalType": "address",
          "name": "operator",
          "type": "address"
        },
        {
          "internalType": "bool",
          "name": "approved",
          "type": "bool"
        }
      ],
      "name": "setApprovalForAll",
      "outputs": [],
      "stateMutability": "nonpayable",
      "type": "function"
    },
    {
      "inputs": [
        {
          "internalType": "bytes4",
          "name": "interfaceId",
          "type": "bytes4"
        }
      ],
      "name": "supportsInterface",
      "outputs": [
        {
          "internalType": "bool",
          "name": "",
          "type": "bool"
        }
      ],
      "stateMutability": "view",
      "type": "function"
    },
    {
      "inputs": [],
      "name": "symbol",
      "outputs": [
        {
          "internalType": "string",
          "name": "",
          "type": "string"
        }
      ],
      "stateMutability": "view",
      "type": "function"
    },
    {
      "inputs": [
        {
          "internalType": "uint256",
          "name": "tokenId",
          "type": "uint256"
        }
      ],
      "name": "tokenURI",
      "outputs": [
        {
          "internalType": "string",
          "name": "",
          "type": "string"
        }
      ],
      "stateMutability": "view",
      "type": "function"
    },
    {
      "inputs": [
        {
          "internalType": "address",
          "name": "from",
          "type": "address"
        },
        {
          "internalType": "address",
          "name": "to",
          "type": "address"
        },
        {
          "internalType": "uint256",
          "name": "tokenId",
          "type": "uint256"
        }
      ],
      "name": "transferFrom",
      "outputs": [],
      "stateMutability": "nonpayable",
      "type": "function"
    },
    {
      "inputs": [
        {
          "internalType": "address",
          "name": "newOwner",
          "type": "address"
        }
      ],
      "name": "transferOwnership",
      "outputs": [],
      "stateMutability": "nonpayable",
      "type": "function"
    },
    {
      "inputs": [],
      "name": "pause",
      "outputs": [],
      "stateMutability": "nonpayable",
      "type": "function"
    },
    {
      "inputs": [],
      "name": "unpause",
      "outputs": [],
      "stateMutability": "nonpayable",
      "type": "function"
    },
    {
      "inputs": [
        {
          "internalType": "address",
          "name": "to",
          "type": "address"
        },
        {
          "internalType": "uint256",
          "name": "tokenId",
          "type": "uint256"
        }
      ],
      "name": "safeMint",
      "outputs": [],
      "stateMutability": "nonpayable",
      "type": "function"
    }
  ],
  "bytecode": "0x60806040523480156200001157600080fd5b506040518060400160405280600881526020017f484f444c504947530000000000000000000000000000000000000000000000008152506040518060400160405280600581526020017f4844504947000000000000000000000000000000000000000000000000000000815250816000908051906020019062000096929190620001c1565b508060019080519060200190620000af929190620001c1565b5050506000600660006101000a81548160ff021916908315150217905550620000ed620000e1620000f360201b60201c565b620000fb60201b60201c565b620002d6565b600033905090565b6000600660019054906101000a900473ffffffffffffffffffffffffffffffffffffffff16905081600660016101000a81548173ffffffffffffffffffffffffffffffffffffffff021916908373ffffffffffffffffffffffffffffffffffffffff1602179055508173ffffffffffffffffffffffffffffffffffffffff168173ffffffffffffffffffffffffffffffffffffffff167f8be0079c531659141344cd1fd0a4f28419497f9722a3daafe3b4186f6b6457e060405160405180910390a35050565b828054620001cf9062000271565b90600052602060002090601f016020900481019282620001f357600085556200023f565b82601f106200020e57805160ff19168380011785556200023f565b828001600101855582156200023f579182015b828111156200023e57825182559160200191906001019062000221565b5b5090506200024e919062000252565b5090565b5b808211156200026d57600081600090555060010162000253565b5090565b600060028204905060018216806200028a57607f821691505b60208210811415620002a157620002a0620002a7565b5b50919050565b7f4e487b7100000000000000000000000000000000000000000000000000000000600052602260045260246000fd5b61316980620002e66000396000f3fe608060405234801561001057600080fd5b50600436106101375760003560e01c806370a08231116100b8578063a14481941161007c578063a144819414610302578063a22cb4651461031e578063b88d4fde1461033a578063c87b56dd14610356578063e985e9c514610386578063f2fde38b146103b657610137565b806370a0823114610282578063715018a6146102b25780638456cb59146102bc5780638da5cb5b146102c657806395d89b41146102e457610137565b80633f4ba83a116100ff5780633f4ba83a146101f257806342842e0e146101fc57806342966c68146102185780635c975abb146102345780636352211e1461025257610137565b806301ffc9a71461013c57806306fdde031461016c578063081812fc1461018a578063095ea7b3146101ba57806323b872dd146101d6575b600080fd5b61015660048036038101906101519190612103565b6103d2565b6040516101639190612572565b60405180910390f35b6101746104b4565b604051610181919061258d565b60405180910390f35b6101a4600480360381019061019f9190612155565b610546565b6040516101b1919061250b565b60405180910390f35b6101d460048036038101906101cf91906120c7565b6105cb565b005b6101f060048036038101906101eb9190611fc1565b6106e3565b005b6101fa610743565b005b61021660048036038101906102119190611fc1565b6107c9565b005b610232600480360381019061022d9190612155565b6107e9565b005b61023c610845565b6040516102499190612572565b60405180910390f35b61026c60048036038101906102679190612155565b61085c565b604051610279919061250b565b60405180910390f35b61029c60048036038101906102979190611f5c565b61090e565b6040516102a9919061280f565b60405180910390f35b6102ba6109c6565b005b6102c4610a4e565b005b6102ce610ad4565b6040516102db919061250b565b60405180910390f35b6102ec610afe565b6040516102f9919061258d565b60405180910390f35b61031c600480360381019061031791906120c7565b610b90565b005b6103386004803603810190610333919061208b565b610c1a565b005b610354600480360381019061034f9190612010565b610d9b565b005b610370600480360381019061036b9190612155565b610dfd565b60405161037d919061258d565b60405180910390f35b6103a0600480360381019061039b9190611f85565b610ea4565b6040516103ad9190612572565b60405180910390f35b6103d060048036038101906103cb9190611f5c565b610f38565b005b60007f80ac58cd000000000000000000000000000000000000000000000000000000007bffffffffffffffffffffffffffffffffffffffffffffffffffffffff1916827bffffffffffffffffffffffffffffffffffffffffffffffffffffffff1916148061049d57507f5b5e139f000000000000000000000000000000000000000000000000000000007bffffffffffffffffffffffffffffffffffffffffffffffffffffffff1916827bffffffffffffffffffffffffffffffffffffffffffffffffffffffff1916145b806104ad57506104ac82611030565b5b9050919050565b6060600080546104c390612a34565b80601f01602080910402602001604051908101604052809291908181526020018280546104ef90612a34565b801561053c5780601f106105115761010080835404028352916020019161053c565b820191906000526020600020905b81548152906001019060200180831161051f57829003601f168201915b5050505050905090565b60006105518261109a565b610590576040517f08c379a00000000000000000000000000000000000000000000000000000000081526004016105879061272f565b60405180910390fd5b6004600083815260200190815260200160002060009054906101000a900473ffffffffffffffffffffffffffffffffffffffff169050919050565b60006105d68261085c565b90508073ffffffffffffffffffffffffffffffffffffffff168373ffffffffffffffffffffffffffffffffffffffff161415610647576040517f08c379a000000000000000000000000000000000000000000000000000000000815260040161063e906127af565b60405180910390fd5b8073ffffffffffffffffffffffffffffffffffffffff16610666611106565b73ffffffffffffffffffffffffffffffffffffffff16148061069557506106948161068f611106565b610ea4565b5b6106d4576040517f08c379a00000000000000000000000000000000000000000000000000000000081526004016106cb906126af565b60405180910390fd5b6106de838361110e565b505050565b6106f46106ee611106565b826111c7565b610733576040517f08c379a000000000000000000000000000000000000000000000000000000000815260040161072a906127cf565b60405180910390fd5b61073e8383836112a5565b505050565b61074b611106565b73ffffffffffffffffffffffffffffffffffffffff16610769610ad4565b73ffffffffffffffffffffffffffffffffffffffff16146107bf576040517f08c379a00000000000000000000000000000000000000000000000000000000081526004016107b69061274f565b60405180910390fd5b6107c7611501565b565b6107e483838360405180602001604052806000815250610d9b565b505050565b6107fa6107f4611106565b826111c7565b610839576040517f08c379a0000000000000000000000000000000000000000000000000000000008152600401610830906127ef565b60405180910390fd5b610842816115a3565b50565b6000600660009054906101000a900460ff16905090565b6000806002600084815260200190815260200160002060009054906101000a900473ffffffffffffffffffffffffffffffffffffffff169050600073ffffffffffffffffffffffffffffffffffffffff168173ffffffffffffffffffffffffffffffffffffffff161415610905576040517f08c379a00000000000000000000000000000000000000000000000000000000081526004016108fc906126ef565b60405180910390fd5b80915050919050565b60008073ffffffffffffffffffffffffffffffffffffffff168273ffffffffffffffffffffffffffffffffffffffff16141561097f576040517f08c379a0000000000000000000000000000000000000000000000000000000008152600401610976906126cf565b60405180910390fd5b600360008373ffffffffffffffffffffffffffffffffffffffff1673ffffffffffffffffffffffffffffffffffffffff168152602001908152602001600020549050919050565b6109ce611106565b73ffffffffffffffffffffffffffffffffffffffff166109ec610ad4565b73ffffffffffffffffffffffffffffffffffffffff1614610a42576040517f08c379a0000000000000000000000000000000000000000000000000000000008152600401610a399061274f565b60405180910390fd5b610a4c60006116b4565b565b610a56611106565b73ffffffffffffffffffffffffffffffffffffffff16610a74610ad4565b73ffffffffffffffffffffffffffffffffffffffff1614610aca576040517f08c379a0000000000000000000000000000000000000000000000000000000008152600401610ac19061274f565b60405180910390fd5b610ad261177a565b565b6000600660019054906101000a900473ffffffffffffffffffffffffffffffffffffffff16905090565b606060018054610b0d90612a34565b80601f0160208091040260200160405190810160405280929190818152602001828054610b3990612a34565b8015610b865780601f10610b5b57610100808354040283529160200191610b86565b820191906000526020600020905b815481529060010190602001808311610b6957829003601f168201915b5050505050905090565b610b98611106565b73ffffffffffffffffffffffffffffffffffffffff16610bb6610ad4565b73ffffffffffffffffffffffffffffffffffffffff1614610c0c576040517f08c379a0000000000000000000000000000000000000000000000000000000008152600401610c039061274f565b60405180910390fd5b610c16828261181d565b5050565b610c22611106565b73ffffffffffffffffffffffffffffffffffffffff168273ffffffffffffffffffffffffffffffffffffffff161415610c90576040517f08c379a0000000000000000000000000000000000000000000000000000000008152600401610c879061264f565b60405180910390fd5b8060056000610c9d611106565b73ffffffffffffffffffffffffffffffffffffffff1673ffffffffffffffffffffffffffffffffffffffff16815260200190815260200160002060008473ffffffffffffffffffffffffffffffffffffffff1673ffffffffffffffffffffffffffffffffffffffff16815260200190815260200160002060006101000a81548160ff0219169083151502179055508173ffffffffffffffffffffffffffffffffffffffff16610d4a611106565b73ffffffffffffffffffffffffffffffffffffffff167f17307eab39ab6107e8899845ad3d59bd9653f200f220920489ca2b5937696c3183604051610d8f9190612572565b60405180910390a35050565b610dac610da6611106565b836111c7565b610deb576040517f08c379a0000000000000000000000000000000000000000000000000000000008152600401610de2906127cf565b60405180910390fd5b610df78484848461183b565b50505050565b6060610e088261109a565b610e47576040517f08c379a0000000000000000000000000000000000000000000000000000000008152600401610e3e9061278f565b60405180910390fd5b6000610e51611897565b90506000815111610e715760405180602001604052806000815250610e9c565b80610e7b846118ae565b604051602001610e8c9291906124e7565b6040516020818303038152906040525b915050919050565b6000600560008473ffffffffffffffffffffffffffffffffffffffff1673ffffffffffffffffffffffffffffffffffffffff16815260200190815260200160002060008373ffffffffffffffffffffffffffffffffffffffff1673ffffffffffffffffffffffffffffffffffffffff16815260200190815260200160002060009054906101000a900460ff16905092915050565b610f40611106565b73ffffffffffffffffffffffffffffffffffffffff16610f5e610ad4565b73ffffffffffffffffffffffffffffffffffffffff1614610fb4576040517f08c379a0000000000000000000000000000000000000000000000000000000008152600401610fab9061274f565b60405180910390fd5b600073ffffffffffffffffffffffffffffffffffffffff168173ffffffffffffffffffffffffffffffffffffffff161415611024576040517f08c379a000000000000000000000000000000000000000000000000000000000815260040161101b906125ef565b60405180910390fd5b61102d816116b4565b50565b60007f01ffc9a7000000000000000000000000000000000000000000000000000000007bffffffffffffffffffffffffffffffffffffffffffffffffffffffff1916827bffffffffffffffffffffffffffffffffffffffffffffffffffffffff1916149050919050565b60008073ffffffffffffffffffffffffffffffffffffffff166002600084815260200190815260200160002060009054906101000a900473ffffffffffffffffffffffffffffffffffffffff1673ffffffffffffffffffffffffffffffffffffffff1614159050919050565b600033905090565b816004600083815260200190815260200160002060006101000a81548173ffffffffffffffffffffffffffffffffffffffff021916908373ffffffffffffffffffffffffffffffffffffffff160217905550808273ffffffffffffffffffffffffffffffffffffffff166111818361085c565b73ffffffffffffffffffffffffffffffffffffffff167f8c5be1e5ebec7d5bd14f71427d1e84f3dd0314c0f7b2291e5b200ac8c7c3b92560405160405180910390a45050565b60006111d28261109a565b611211576040517f08c379a00000000000000000000000000000000000000000000000000000000081526004016112089061266f565b60405180910390fd5b600061121c8361085c565b90508073ffffffffffffffffffffffffffffffffffffffff168473ffffffffffffffffffffffffffffffffffffffff16148061128b57508373ffffffffffffffffffffffffffffffffffffffff1661127384610546565b73ffffffffffffffffffffffffffffffffffffffff16145b8061129c575061129b8185610ea4565b5b91505092915050565b8273ffffffffffffffffffffffffffffffffffffffff166112c58261085c565b73ffffffffffffffffffffffffffffffffffffffff161461131b576040517f08c379a00000000000000000000000000000000000000000000000000000000081526004016113129061276f565b60405180910390fd5b600073ffffffffffffffffffffffffffffffffffffffff168273ffffffffffffffffffffffffffffffffffffffff16141561138b576040517f08c379a00000000000000000000000000000000000000000000000000000000081526004016113829061262f565b60405180910390fd5b611396838383611a5b565b6113a160008261110e565b6001600360008573ffffffffffffffffffffffffffffffffffffffff1673ffffffffffffffffffffffffffffffffffffffff16815260200190815260200160002060008282546113f1919061294a565b925050819055506001600360008473ffffffffffffffffffffffffffffffffffffffff1673ffffffffffffffffffffffffffffffffffffffff168152602001908152602001600020600082825461144891906128c3565b92505081905550816002600083815260200190815260200160002060006101000a81548173ffffffffffffffffffffffffffffffffffffffff021916908373ffffffffffffffffffffffffffffffffffffffff160217905550808273ffffffffffffffffffffffffffffffffffffffff168473ffffffffffffffffffffffffffffffffffffffff167fddf252ad1be2c89b69c2b068fc378daa952ba7f163c4a11628f55a4df523b3ef60405160405180910390a4505050565b611509610845565b611548576040517f08c379a000000000000000000000000000000000000000000000000000000000815260040161153f906125af565b60405180910390fd5b6000600660006101000a81548160ff0219169083151502179055507f5db9ee0a495bf2e6ff9c91a7834c1ba4fdd244a5e8aa4e537bd38aeae4b073aa61158c611106565b604051611599919061250b565b60405180910390a1565b60006115ae8261085c565b90506115bc81600084611a5b565b6115c760008361110e565b6001600360008373ffffffffffffffffffffffffffffffffffffffff1673ffffffffffffffffffffffffffffffffffffffff1681526020019081526020016000206000828254611617919061294a565b925050819055506002600083815260200190815260200160002060006101000a81549073ffffffffffffffffffffffffffffffffffffffff021916905581600073ffffffffffffffffffffffffffffffffffffffff168273ffffffffffffffffffffffffffffffffffffffff167fddf252ad1be2c89b69c2b068fc378daa952ba7f163c4a11628f55a4df523b3ef60405160405180910390a45050565b6000600660019054906101000a900473ffffffffffffffffffffffffffffffffffffffff16905081600660016101000a81548173ffffffffffffffffffffffffffffffffffffffff021916908373ffffffffffffffffffffffffffffffffffffffff1602179055508173ffffffffffffffffffffffffffffffffffffffff168173ffffffffffffffffffffffffffffffffffffffff167f8be0079c531659141344cd1fd0a4f28419497f9722a3daafe3b4186f6b6457e060405160405180910390a35050565b611782610845565b156117c2576040517f08c379a00000000000000000000000000000000000000000000000000000000081526004016117b99061268f565b60405180910390fd5b6001600660006101000a81548160ff0219169083151502179055507f62e78cea01bee320cd4e420270b5ea74000d11b0c9f74754ebdbfc544b05a258611806611106565b604051611813919061250b565b60405180910390a1565b611837828260405180602001604052806000815250611ab3565b5050565b6118468484846112a5565b61185284848484611b0e565b611891576040517f08c379a0000000000000000000000000000000000000000000000000000000008152600401611888906125cf565b60405180910390fd5b50505050565b606060405180602001604052806000815250905090565b606060008214156118f6576040518060400160405280600181526020017f30000000000000000000000000000000000000000000000000000000000000008152509050611a56565b600082905060005b6000821461192857808061191190612a97565b915050600a826119219190612919565b91506118fe565b60008167ffffffffffffffff81111561196a577f4e487b7100000000000000000000000000000000000000000000000000000000600052604160045260246000fd5b6040519080825280601f01601f19166020018201604052801561199c5781602001600182028036833780820191505090505b5090505b60008514611a4f576001826119b5919061294a565b9150600a856119c49190612ae0565b60306119d091906128c3565b60f81b818381518110611a0c577f4e487b7100000000000000000000000000000000000000000000000000000000600052603260045260246000fd5b60200101907effffffffffffffffffffffffffffffffffffffffffffffffffffffffffffff1916908160001a905350600a85611a489190612919565b94506119a0565b8093505050505b919050565b611a63610845565b15611aa3576040517f08c379a0000000000000000000000000000000000000000000000000000000008152600401611a9a9061268f565b60405180910390fd5b611aae838383611ca5565b505050565b611abd8383611caa565b611aca6000848484611b0e565b611b09576040517f08c379a0000000000000000000000000000000000000000000000000000000008152600401611b00906125cf565b60405180910390fd5b505050565b6000611b2f8473ffffffffffffffffffffffffffffffffffffffff16611e78565b15611c98578373ffffffffffffffffffffffffffffffffffffffff1663150b7a02611b58611106565b8786866040518563ffffffff1660e01b8152600401611b7a9493929190612526565b602060405180830381600087803b158015611b9457600080fd5b505af1925050508015611bc557506040513d601f19601f82011682018060405250810190611bc2919061212c565b60015b611c48573d8060008114611bf5576040519150601f19603f3d011682016040523d82523d6000602084013e611bfa565b606091505b50600081511415611c40576040517f08c379a0000000000000000000000000000000000000000000000000000000008152600401611c37906125cf565b60405180910390fd5b805181602001fd5b63150b7a0260e01b7bffffffffffffffffffffffffffffffffffffffffffffffffffffffff1916817bffffffffffffffffffffffffffffffffffffffffffffffffffffffff191614915050611c9d565b600190505b949350505050565b505050565b600073ffffffffffffffffffffffffffffffffffffffff168273ffffffffffffffffffffffffffffffffffffffff161415611d1a576040517f08c379a0000000000000000000000000000000000000000000000000000000008152600401611d119061270f565b60405180910390fd5b611d238161109a565b15611d63576040517f08c379a0000000000000000000000000000000000000000000000000000000008152600401611d5a9061260f565b60405180910390fd5b611d6f60008383611a5b565b6001600360008473ffffffffffffffffffffffffffffffffffffffff1673ffffffffffffffffffffffffffffffffffffffff1681526020019081526020016000206000828254611dbf91906128c3565b92505081905550816002600083815260200190815260200160002060006101000a81548173ffffffffffffffffffffffffffffffffffffffff021916908373ffffffffffffffffffffffffffffffffffffffff160217905550808273ffffffffffffffffffffffffffffffffffffffff16600073ffffffffffffffffffffffffffffffffffffffff167fddf252ad1be2c89b69c2b068fc378daa952ba7f163c4a11628f55a4df523b3ef60405160405180910390a45050565b600080823b905060008111915050919050565b6000611e9e611e998461284f565b61282a565b905082815260208101848484011115611eb657600080fd5b611ec18482856129f2565b509392505050565b600081359050611ed8816130d7565b92915050565b600081359050611eed816130ee565b92915050565b600081359050611f0281613105565b92915050565b600081519050611f1781613105565b92915050565b600082601f830112611f2e57600080fd5b8135611f3e848260208601611e8b565b91505092915050565b600081359050611f568161311c565b92915050565b600060208284031215611f6e57600080fd5b6000611f7c84828501611ec9565b91505092915050565b60008060408385031215611f9857600080fd5b6000611fa685828601611ec9565b9250506020611fb785828601611ec9565b9150509250929050565b600080600060608486031215611fd657600080fd5b6000611fe486828701611ec9565b9350506020611ff586828701611ec9565b925050604061200686828701611f47565b9150509250925092565b6000806000806080858703121561202657600080fd5b600061203487828801611ec9565b945050602061204587828801611ec9565b935050604061205687828801611f47565b925050606085013567ffffffffffffffff81111561207357600080fd5b61207f87828801611f1d565b91505092959194509250565b6000806040838503121561209e57600080fd5b60006120ac85828601611ec9565b92505060206120bd85828601611ede565b9150509250929050565b600080604083850312156120da57600080fd5b60006120e885828601611ec9565b92505060206120f985828601611f47565b9150509250929050565b60006020828403121561211557600080fd5b600061212384828501611ef3565b91505092915050565b60006020828403121561213e57600080fd5b600061214c84828501611f08565b91505092915050565b60006020828403121561216757600080fd5b600061217584828501611f47565b91505092915050565b6121878161297e565b82525050565b61219681612990565b82525050565b60006121a782612880565b6121b18185612896565b93506121c1818560208601612a01565b6121ca81612bcd565b840191505092915050565b60006121e08261288b565b6121ea81856128a7565b93506121fa818560208601612a01565b61220381612bcd565b840191505092915050565b60006122198261288b565b61222381856128b8565b9350612233818560208601612a01565b80840191505092915050565b600061224c6014836128a7565b915061225782612bde565b602082019050919050565b600061226f6032836128a7565b915061227a82612c07565b604082019050919050565b60006122926026836128a7565b915061229d82612c56565b604082019050919050565b60006122b5601c836128a7565b91506122c082612ca5565b602082019050919050565b60006122d86024836128a7565b91506122e382612cce565b604082019050919050565b60006122fb6019836128a7565b915061230682612d1d565b602082019050919050565b600061231e602c836128a7565b915061232982612d46565b604082019050919050565b60006123416010836128a7565b915061234c82612d95565b602082019050919050565b60006123646038836128a7565b915061236f82612dbe565b604082019050919050565b6000612387602a836128a7565b915061239282612e0d565b604082019050919050565b60006123aa6029836128a7565b91506123b582612e5c565b604082019050919050565b60006123cd6020836128a7565b91506123d882612eab565b602082019050919050565b60006123f0602c836128a7565b91506123fb82612ed4565b604082019050919050565b60006124136020836128a7565b915061241e82612f23565b602082019050919050565b60006124366029836128a7565b915061244182612f4c565b604082019050919050565b6000612459602f836128a7565b915061246482612f9b565b604082019050919050565b600061247c6021836128a7565b915061248782612fea565b604082019050919050565b600061249f6031836128a7565b91506124aa82613039565b604082019050919050565b60006124c26030836128a7565b91506124cd82613088565b604082019050919050565b6124e1816129e8565b82525050565b60006124f3828561220e565b91506124ff828461220e565b91508190509392505050565b6000602082019050612520600083018461217e565b92915050565b600060808201905061253b600083018761217e565b612548602083018661217e565b61255560408301856124d8565b8181036060830152612567818461219c565b905095945050505050565b6000602082019050612587600083018461218d565b92915050565b600060208201905081810360008301526125a781846121d5565b905092915050565b600060208201905081810360008301526125c88161223f565b9050919050565b600060208201905081810360008301526125e881612262565b9050919050565b6000602082019050818103600083015261260881612285565b9050919050565b60006020820190508181036000830152612628816122a8565b9050919050565b60006020820190508181036000830152612648816122cb565b9050919050565b60006020820190508181036000830152612668816122ee565b9050919050565b6000602082019050818103600083015261268881612311565b9050919050565b600060208201905081810360008301526126a881612334565b9050919050565b600060208201905081810360008301526126c881612357565b9050919050565b600060208201905081810360008301526126e88161237a565b9050919050565b600060208201905081810360008301526127088161239d565b9050919050565b60006020820190508181036000830152612728816123c0565b9050919050565b60006020820190508181036000830152612748816123e3565b9050919050565b6000602082019050818103600083015261276881612406565b9050919050565b6000602082019050818103600083015261278881612429565b9050919050565b600060208201905081810360008301526127a88161244c565b9050919050565b600060208201905081810360008301526127c88161246f565b9050919050565b600060208201905081810360008301526127e881612492565b9050919050565b60006020820190508181036000830152612808816124b5565b9050919050565b600060208201905061282460008301846124d8565b92915050565b6000612834612845565b90506128408282612a66565b919050565b6000604051905090565b600067ffffffffffffffff82111561286a57612869612b9e565b5b61287382612bcd565b9050602081019050919050565b600081519050919050565b600081519050919050565b600082825260208201905092915050565b600082825260208201905092915050565b600081905092915050565b60006128ce826129e8565b91506128d9836129e8565b9250827fffffffffffffffffffffffffffffffffffffffffffffffffffffffffffffffff0382111561290e5761290d612b11565b5b828201905092915050565b6000612924826129e8565b915061292f836129e8565b92508261293f5761293e612b40565b5b828204905092915050565b6000612955826129e8565b9150612960836129e8565b92508282101561297357612972612b11565b5b828203905092915050565b6000612989826129c8565b9050919050565b60008115159050919050565b60007fffffffff0000000000000000000000000000000000000000000000000000000082169050919050565b600073ffffffffffffffffffffffffffffffffffffffff82169050919050565b6000819050919050565b82818337600083830152505050565b60005b83811015612a1f578082015181840152602081019050612a04565b83811115612a2e576000848401525b50505050565b60006002820490506001821680612a4c57607f821691505b60208210811415612a6057612a5f612b6f565b5b50919050565b612a6f82612bcd565b810181811067ffffffffffffffff82111715612a8e57612a8d612b9e565b5b80604052505050565b6000612aa2826129e8565b91507fffffffffffffffffffffffffffffffffffffffffffffffffffffffffffffffff821415612ad557612ad4612b11565b5b600182019050919050565b6000612aeb826129e8565b9150612af6836129e8565b925082612b0657612b05612b40565b5b828206905092915050565b7f4e487b7100000000000000000000000000000000000000000000000000000000600052601160045260246000fd5b7f4e487b7100000000000000000000000000000000000000000000000000000000600052601260045260246000fd5b7f4e487b7100000000000000000000000000000000000000000000000000000000600052602260045260246000fd5b7f4e487b7100000000000000000000000000000000000000000000000000000000600052604160045260246000fd5b6000601f19601f8301169050919050565b7f5061757361626c653a206e6f7420706175736564000000000000000000000000600082015250565b7f4552433732313a207472616e7366657220746f206e6f6e20455243373231526560008201527f63656976657220696d706c656d656e7465720000000000000000000000000000602082015250565b7f4f776e61626c653a206e6577206f776e657220697320746865207a65726f206160008201527f6464726573730000000000000000000000000000000000000000000000000000602082015250565b7f4552433732313a20746f6b656e20616c7265616479206d696e74656400000000600082015250565b7f4552433732313a207472616e7366657220746f20746865207a65726f2061646460008201527f7265737300000000000000000000000000000000000000000000000000000000602082015250565b7f4552433732313a20617070726f766520746f2063616c6c657200000000000000600082015250565b7f4552433732313a206f70657261746f7220717565727920666f72206e6f6e657860008201527f697374656e7420746f6b656e0000000000000000000000000000000000000000602082015250565b7f5061757361626c653a2070617573656400000000000000000000000000000000600082015250565b7f4552433732313a20617070726f76652063616c6c6572206973206e6f74206f7760008201527f6e6572206e6f7220617070726f76656420666f7220616c6c0000000000000000602082015250565b7f4552433732313a2062616c616e636520717565727920666f7220746865207a6560008201527f726f206164647265737300000000000000000000000000000000000000000000602082015250565b7f4552433732313a206f776e657220717565727920666f72206e6f6e657869737460008201527f656e7420746f6b656e0000000000000000000000000000000000000000000000602082015250565b7f4552433732313a206d696e7420746f20746865207a65726f2061646472657373600082015250565b7f4552433732313a20617070726f76656420717565727920666f72206e6f6e657860008201527f697374656e7420746f6b656e0000000000000000000000000000000000000000602082015250565b7f4f776e61626c653a2063616c6c6572206973206e6f7420746865206f776e6572600082015250565b7f4552433732313a207472616e73666572206f6620746f6b656e2074686174206960008201527f73206e6f74206f776e0000000000000000000000000000000000000000000000602082015250565b7f4552433732314d657461646174613a2055524920717565727920666f72206e6f60008201527f6e6578697374656e7420746f6b656e0000000000000000000000000000000000602082015250565b7f4552433732313a20617070726f76616c20746f2063757272656e74206f776e6560008201527f7200000000000000000000000000000000000000000000000000000000000000602082015250565b7f4552433732313a207472616e736665722063616c6c6572206973206e6f74206f60008201527f776e6572206e6f7220617070726f766564000000000000000000000000000000602082015250565b7f4552433732314275726e61626c653a2063616c6c6572206973206e6f74206f7760008201527f6e6572206e6f7220617070726f76656400000000000000000000000000000000602082015250565b6130e08161297e565b81146130eb57600080fd5b50565b6130f781612990565b811461310257600080fd5b50565b61310e8161299c565b811461311957600080fd5b50565b613125816129e8565b811461313057600080fd5b5056fea26469706673582212202227a526911bc16a90c1c3928475ffe0d53cc753cbaa60763d28df736f2e215464736f6c63430008020033",
  "immutableReferences": {},
  "source": "// SPDX-License-Identifier: MIT\npragma solidity ^0.8.2;\n\nimport \"@openzeppelin/contracts/token/ERC721/ERC721.sol\";\nimport \"@openzeppelin/contracts/security/Pausable.sol\";\nimport \"@openzeppelin/contracts/access/Ownable.sol\";\nimport \"@openzeppelin/contracts/token/ERC721/extensions/ERC721Burnable.sol\";\n\ncontract HodlPigs is ERC721, Pausable, Ownable, ERC721Burnable {\n    constructor() ERC721(\"HODLPIGS\", \"HDPIG\") {}\n\n    function pause() public onlyOwner {\n        _pause();\n    }\n\n    function unpause() public onlyOwner {\n        _unpause();\n    }\n\n    function safeMint(address to, uint256 tokenId) public onlyOwner {\n        _safeMint(to, tokenId);\n    }\n\n    function _beforeTokenTransfer(\n        address from,\n        address to,\n        uint256 tokenId\n    ) internal override whenNotPaused {\n        super._beforeTokenTransfer(from, to, tokenId);\n    }\n}\n",
  "sourcePath": "/home/vagrant/hodlpigs_contract/contracts/HODLPigs.sol",
  "compiler": {
    "name": "solc",
    "version": "0.8.2+commit.661d1103.Emscripten.clang"
  },
  "schemaVersion": "3.4.3",
  "updatedAt": "2021-09-08T04:31:17.501Z",
  "devdoc": {
    "kind": "dev",
    "methods": {
      "approve(address,uint256)": {
        "details": "See {IERC721-approve}."
      },
      "balanceOf(address)": {
        "details": "See {IERC721-balanceOf}."
      },
      "burn(uint256)": {
        "details": "Burns `tokenId`. See {ERC721-_burn}. Requirements: - The caller must own `tokenId` or be an approved operator."
      },
      "getApproved(uint256)": {
        "details": "See {IERC721-getApproved}."
      },
      "isApprovedForAll(address,address)": {
        "details": "See {IERC721-isApprovedForAll}."
      },
      "name()": {
        "details": "See {IERC721Metadata-name}."
      },
      "owner()": {
        "details": "Returns the address of the current owner."
      },
      "ownerOf(uint256)": {
        "details": "See {IERC721-ownerOf}."
      },
      "paused()": {
        "details": "Returns true if the contract is paused, and false otherwise."
      },
      "renounceOwnership()": {
        "details": "Leaves the contract without owner. It will not be possible to call `onlyOwner` functions anymore. Can only be called by the current owner. NOTE: Renouncing ownership will leave the contract without an owner, thereby removing any functionality that is only available to the owner."
      },
      "safeTransferFrom(address,address,uint256)": {
        "details": "See {IERC721-safeTransferFrom}."
      },
      "safeTransferFrom(address,address,uint256,bytes)": {
        "details": "See {IERC721-safeTransferFrom}."
      },
      "setApprovalForAll(address,bool)": {
        "details": "See {IERC721-setApprovalForAll}."
      },
      "supportsInterface(bytes4)": {
        "details": "See {IERC165-supportsInterface}."
      },
      "symbol()": {
        "details": "See {IERC721Metadata-symbol}."
      },
      "tokenURI(uint256)": {
        "details": "See {IERC721Metadata-tokenURI}."
      },
      "transferFrom(address,address,uint256)": {
        "details": "See {IERC721-transferFrom}."
      },
      "transferOwnership(address)": {
        "details": "Transfers ownership of the contract to a new account (`newOwner`). Can only be called by the current owner."
      }
    },
    "version": 1
  },
  "userdoc": {
    "kind": "user",
    "methods": {},
    "version": 1
  }
}