{
  "contractName": "HODLPigs",
  "abi": [
    {
      "inputs": [],
      "stateMutability": "nonpayable",
      "type": "constructor"
    },
    {
      "anonymous": false,
      "inputs": [
        {
          "indexed": true,
          "internalType": "address",
          "name": "owner",
          "type": "address"
        },
        {
          "indexed": true,
          "internalType": "address",
          "name": "approved",
          "type": "address"
        },
        {
          "indexed": true,
          "internalType": "uint256",
          "name": "tokenId",
          "type": "uint256"
        }
      ],
      "name": "Approval",
      "type": "event"
    },
    {
      "anonymous": false,
      "inputs": [
        {
          "indexed": true,
          "internalType": "address",
          "name": "owner",
          "type": "address"
        },
        {
          "indexed": true,
          "internalType": "address",
          "name": "operator",
          "type": "address"
        },
        {
          "indexed": false,
          "internalType": "bool",
          "name": "approved",
          "type": "bool"
        }
      ],
      "name": "ApprovalForAll",
      "type": "event"
    },
    {
      "anonymous": false,
      "inputs": [
        {
          "indexed": true,
          "internalType": "address",
          "name": "owner",
          "type": "address"
        },
        {
          "indexed": true,
          "internalType": "uint256",
          "name": "tokenId",
          "type": "uint256"
        },
        {
          "indexed": false,
          "internalType": "uint256",
          "name": "value",
          "type": "uint256"
        }
      ],
      "name": "Cracked",
      "type": "event"
    },
    {
      "anonymous": false,
      "inputs": [
        {
          "indexed": true,
          "internalType": "address",
          "name": "from",
          "type": "address"
        },
        {
          "indexed": true,
          "internalType": "uint256",
          "name": "tokenId",
          "type": "uint256"
        },
        {
          "indexed": false,
          "internalType": "uint256",
          "name": "value",
          "type": "uint256"
        }
      ],
      "name": "Deposit",
      "type": "event"
    },
    {
      "anonymous": false,
      "inputs": [
        {
          "indexed": true,
          "internalType": "address",
          "name": "previousOwner",
          "type": "address"
        },
        {
          "indexed": true,
          "internalType": "address",
          "name": "newOwner",
          "type": "address"
        }
      ],
      "name": "OwnershipTransferred",
      "type": "event"
    },
    {
      "anonymous": false,
      "inputs": [
        {
          "indexed": false,
          "internalType": "address",
          "name": "account",
          "type": "address"
        }
      ],
      "name": "Paused",
      "type": "event"
    },
    {
      "anonymous": false,
      "inputs": [
        {
          "indexed": true,
          "internalType": "address",
          "name": "from",
          "type": "address"
        },
        {
          "indexed": true,
          "internalType": "address",
          "name": "to",
          "type": "address"
        },
        {
          "indexed": true,
          "internalType": "uint256",
          "name": "tokenId",
          "type": "uint256"
        }
      ],
      "name": "Transfer",
      "type": "event"
    },
    {
      "anonymous": false,
      "inputs": [
        {
          "indexed": false,
          "internalType": "address",
          "name": "account",
          "type": "address"
        }
      ],
      "name": "Unpaused",
      "type": "event"
    },
    {
      "inputs": [
        {
          "internalType": "address",
          "name": "to",
          "type": "address"
        },
        {
          "internalType": "uint256",
          "name": "tokenId",
          "type": "uint256"
        }
      ],
      "name": "approve",
      "outputs": [],
      "stateMutability": "nonpayable",
      "type": "function"
    },
    {
      "inputs": [
        {
          "internalType": "address",
          "name": "owner",
          "type": "address"
        }
      ],
      "name": "balanceOf",
      "outputs": [
        {
          "internalType": "uint256",
          "name": "",
          "type": "uint256"
        }
      ],
      "stateMutability": "view",
      "type": "function",
      "constant": true
    },
    {
      "inputs": [
        {
          "internalType": "uint256",
          "name": "tokenId",
          "type": "uint256"
        }
      ],
      "name": "burn",
      "outputs": [],
      "stateMutability": "nonpayable",
      "type": "function"
    },
    {
      "inputs": [
        {
          "internalType": "uint256",
          "name": "tokenId",
          "type": "uint256"
        }
      ],
      "name": "getApproved",
      "outputs": [
        {
          "internalType": "address",
          "name": "",
          "type": "address"
        }
      ],
      "stateMutability": "view",
      "type": "function",
      "constant": true
    },
    {
      "inputs": [
        {
          "internalType": "address",
          "name": "owner",
          "type": "address"
        },
        {
          "internalType": "address",
          "name": "operator",
          "type": "address"
        }
      ],
      "name": "isApprovedForAll",
      "outputs": [
        {
          "internalType": "bool",
          "name": "",
          "type": "bool"
        }
      ],
      "stateMutability": "view",
      "type": "function",
      "constant": true
    },
    {
      "inputs": [
        {
          "internalType": "uint256",
          "name": "",
          "type": "uint256"
        }
      ],
      "name": "ledger",
      "outputs": [
        {
          "internalType": "uint256",
          "name": "",
          "type": "uint256"
        }
      ],
      "stateMutability": "view",
      "type": "function",
      "constant": true
    },
    {
      "inputs": [],
      "name": "maxPerTx",
      "outputs": [
        {
          "internalType": "uint256",
          "name": "",
          "type": "uint256"
        }
      ],
      "stateMutability": "view",
      "type": "function",
      "constant": true
    },
    {
      "inputs": [],
      "name": "name",
      "outputs": [
        {
          "internalType": "string",
          "name": "",
          "type": "string"
        }
      ],
      "stateMutability": "view",
      "type": "function",
      "constant": true
    },
    {
      "inputs": [],
      "name": "owner",
      "outputs": [
        {
          "internalType": "address",
          "name": "",
          "type": "address"
        }
      ],
      "stateMutability": "view",
      "type": "function",
      "constant": true
    },
    {
      "inputs": [
        {
          "internalType": "uint256",
          "name": "tokenId",
          "type": "uint256"
        }
      ],
      "name": "ownerOf",
      "outputs": [
        {
          "internalType": "address",
          "name": "",
          "type": "address"
        }
      ],
      "stateMutability": "view",
      "type": "function",
      "constant": true
    },
    {
      "inputs": [],
      "name": "paused",
      "outputs": [
        {
          "internalType": "bool",
          "name": "",
          "type": "bool"
        }
      ],
      "stateMutability": "view",
      "type": "function",
      "constant": true
    },
    {
      "inputs": [],
      "name": "pigPrice",
      "outputs": [
        {
          "internalType": "uint256",
          "name": "",
          "type": "uint256"
        }
      ],
      "stateMutability": "view",
      "type": "function",
      "constant": true
    },
    {
      "inputs": [],
      "name": "pigSupply",
      "outputs": [
        {
          "internalType": "uint256",
          "name": "",
          "type": "uint256"
        }
      ],
      "stateMutability": "view",
      "type": "function",
      "constant": true
    },
    {
      "inputs": [],
      "name": "renounceOwnership",
      "outputs": [],
      "stateMutability": "nonpayable",
      "type": "function"
    },
    {
      "inputs": [
        {
          "internalType": "address",
          "name": "from",
          "type": "address"
        },
        {
          "internalType": "address",
          "name": "to",
          "type": "address"
        },
        {
          "internalType": "uint256",
          "name": "tokenId",
          "type": "uint256"
        }
      ],
      "name": "safeTransferFrom",
      "outputs": [],
      "stateMutability": "nonpayable",
      "type": "function"
    },
    {
      "inputs": [
        {
          "internalType": "address",
          "name": "from",
          "type": "address"
        },
        {
          "internalType": "address",
          "name": "to",
          "type": "address"
        },
        {
          "internalType": "uint256",
          "name": "tokenId",
          "type": "uint256"
        },
        {
          "internalType": "bytes",
          "name": "_data",
          "type": "bytes"
        }
      ],
      "name": "safeTransferFrom",
      "outputs": [],
      "stateMutability": "nonpayable",
      "type": "function"
    },
    {
      "inputs": [],
      "name": "saleLedger",
      "outputs": [
        {
          "internalType": "uint256",
          "name": "",
          "type": "uint256"
        }
      ],
      "stateMutability": "view",
      "type": "function",
      "constant": true
    },
    {
      "inputs": [
        {
          "internalType": "address",
          "name": "operator",
          "type": "address"
        },
        {
          "internalType": "bool",
          "name": "approved",
          "type": "bool"
        }
      ],
      "name": "setApprovalForAll",
      "outputs": [],
      "stateMutability": "nonpayable",
      "type": "function"
    },
    {
      "inputs": [],
      "name": "symbol",
      "outputs": [
        {
          "internalType": "string",
          "name": "",
          "type": "string"
        }
      ],
      "stateMutability": "view",
      "type": "function",
      "constant": true
    },
    {
      "inputs": [
        {
          "internalType": "uint256",
          "name": "index",
          "type": "uint256"
        }
      ],
      "name": "tokenByIndex",
      "outputs": [
        {
          "internalType": "uint256",
          "name": "",
          "type": "uint256"
        }
      ],
      "stateMutability": "view",
      "type": "function",
      "constant": true
    },
    {
      "inputs": [
        {
          "internalType": "address",
          "name": "owner",
          "type": "address"
        },
        {
          "internalType": "uint256",
          "name": "index",
          "type": "uint256"
        }
      ],
      "name": "tokenOfOwnerByIndex",
      "outputs": [
        {
          "internalType": "uint256",
          "name": "",
          "type": "uint256"
        }
      ],
      "stateMutability": "view",
      "type": "function",
      "constant": true
    },
    {
      "inputs": [
        {
          "internalType": "uint256",
          "name": "tokenId",
          "type": "uint256"
        }
      ],
      "name": "tokenURI",
      "outputs": [
        {
          "internalType": "string",
          "name": "",
          "type": "string"
        }
      ],
      "stateMutability": "view",
      "type": "function",
      "constant": true
    },
    {
      "inputs": [],
      "name": "totalSupply",
      "outputs": [
        {
          "internalType": "uint256",
          "name": "",
          "type": "uint256"
        }
      ],
      "stateMutability": "view",
      "type": "function",
      "constant": true
    },
    {
      "inputs": [
        {
          "internalType": "address",
          "name": "from",
          "type": "address"
        },
        {
          "internalType": "address",
          "name": "to",
          "type": "address"
        },
        {
          "internalType": "uint256",
          "name": "tokenId",
          "type": "uint256"
        }
      ],
      "name": "transferFrom",
      "outputs": [],
      "stateMutability": "nonpayable",
      "type": "function"
    },
    {
      "inputs": [
        {
          "internalType": "address",
          "name": "newOwner",
          "type": "address"
        }
      ],
      "name": "transferOwnership",
      "outputs": [],
      "stateMutability": "nonpayable",
      "type": "function"
    },
    {
      "inputs": [],
      "name": "withdraw",
      "outputs": [],
      "stateMutability": "nonpayable",
      "type": "function"
    },
    {
      "inputs": [],
      "name": "pause",
      "outputs": [],
      "stateMutability": "nonpayable",
      "type": "function"
    },
    {
      "inputs": [],
      "name": "unpause",
      "outputs": [],
      "stateMutability": "nonpayable",
      "type": "function"
    },
    {
      "inputs": [
        {
          "internalType": "address",
          "name": "to",
          "type": "address"
        },
        {
          "internalType": "uint256",
          "name": "tokenId",
          "type": "uint256"
        }
      ],
      "name": "safeMint",
      "outputs": [],
      "stateMutability": "nonpayable",
      "type": "function"
    },
    {
      "inputs": [
        {
          "internalType": "uint256",
          "name": "tokenId",
          "type": "uint256"
        }
      ],
      "name": "deposit",
      "outputs": [],
      "stateMutability": "payable",
      "type": "function",
      "payable": true
    },
    {
      "inputs": [
        {
          "internalType": "uint256",
          "name": "tokenId",
          "type": "uint256"
        }
      ],
      "name": "crackPig",
      "outputs": [],
      "stateMutability": "nonpayable",
      "type": "function"
    },
    {
      "inputs": [
        {
          "internalType": "uint256",
          "name": "numberOfTokens",
          "type": "uint256"
        }
      ],
      "name": "mintPig",
      "outputs": [],
      "stateMutability": "payable",
      "type": "function",
      "payable": true
    },
    {
      "inputs": [
        {
          "internalType": "bytes4",
          "name": "interfaceId",
          "type": "bytes4"
        }
      ],
      "name": "supportsInterface",
      "outputs": [
        {
          "internalType": "bool",
          "name": "",
          "type": "bool"
        }
      ],
      "stateMutability": "view",
      "type": "function",
      "constant": true
    }
  ],
  "bytecode": "0x60806040526000600c553480156200001657600080fd5b506040518060400160405280600881526020017f484f444c504947530000000000000000000000000000000000000000000000008152506040518060400160405280600581526020017f484450494700000000000000000000000000000000000000000000000000000081525081600090805190602001906200009b92919062000370565b508060019080519060200190620000b492919062000370565b5050506000600660006101000a81548160ff021916908315150217905550620000f2620000e66200010860201b60201c565b6200011060201b60201c565b62000102620001d660201b60201c565b620005dc565b600033905090565b6000600660019054906101000a900473ffffffffffffffffffffffffffffffffffffffff16905081600660016101000a81548173ffffffffffffffffffffffffffffffffffffffff021916908373ffffffffffffffffffffffffffffffffffffffff1602179055508173ffffffffffffffffffffffffffffffffffffffff168173ffffffffffffffffffffffffffffffffffffffff167f8be0079c531659141344cd1fd0a4f28419497f9722a3daafe3b4186f6b6457e060405160405180910390a35050565b620001e66200010860201b60201c565b73ffffffffffffffffffffffffffffffffffffffff166200020c6200027760201b60201c565b73ffffffffffffffffffffffffffffffffffffffff161462000265576040517f08c379a00000000000000000000000000000000000000000000000000000000081526004016200025c90620004be565b60405180910390fd5b62000275620002a160201b60201c565b565b6000600660019054906101000a900473ffffffffffffffffffffffffffffffffffffffff16905090565b620002b16200035960201b60201c565b15620002f4576040517f08c379a0000000000000000000000000000000000000000000000000000000008152600401620002eb906200049c565b60405180910390fd5b6001600660006101000a81548160ff0219169083151502179055507f62e78cea01bee320cd4e420270b5ea74000d11b0c9f74754ebdbfc544b05a258620003406200010860201b60201c565b6040516200034f91906200047f565b60405180910390a1565b6000600660009054906101000a900460ff16905090565b8280546200037e9062000525565b90600052602060002090601f016020900481019282620003a25760008555620003ee565b82601f10620003bd57805160ff1916838001178555620003ee565b82800160010185558215620003ee579182015b82811115620003ed578251825591602001919060010190620003d0565b5b509050620003fd919062000401565b5090565b5b808211156200041c57600081600090555060010162000402565b5090565b6200042b81620004f1565b82525050565b600062000440601083620004e0565b91506200044d826200058a565b602082019050919050565b600062000467602083620004e0565b91506200047482620005b3565b602082019050919050565b600060208201905062000496600083018462000420565b92915050565b60006020820190508181036000830152620004b78162000431565b9050919050565b60006020820190508181036000830152620004d98162000458565b9050919050565b600082825260208201905092915050565b6000620004fe8262000505565b9050919050565b600073ffffffffffffffffffffffffffffffffffffffff82169050919050565b600060028204905060018216806200053e57607f821691505b602082108114156200055557620005546200055b565b5b50919050565b7f4e487b7100000000000000000000000000000000000000000000000000000000600052602260045260246000fd5b7f5061757361626c653a2070617573656400000000000000000000000000000000600082015250565b7f4f776e61626c653a2063616c6c6572206973206e6f7420746865206f776e6572600082015250565b6142d380620005ec6000396000f3fe6080604052600436106101ee5760003560e01c80636352211e1161010d578063a1448194116100a0578063c87b56dd1161006f578063c87b56dd146106a7578063e985e9c5146106e4578063f2fde38b14610721578063f968adbe1461074a578063ff41667814610775576101ee565b8063a144819414610610578063a22cb46514610639578063b6b55f2514610662578063b88d4fde1461067e576101ee565b80638456cb59116100dc5780638456cb59146105785780638da5cb5b1461058f57806395d89b41146105ba5780639ecbba53146105e5576101ee565b80636352211e146104cb57806370a0823114610508578063715018a614610545578063763642a61461055c576101ee565b80633ccfd60b116101855780634f5be266116101545780634f5be2661461040f5780634f6ccce71461043a5780635c975abb1461047757806361b17755146104a2576101ee565b80633ccfd60b1461038f5780633f4ba83a146103a657806342842e0e146103bd57806342966c68146103e6576101ee565b806310a7fd7b116101c157806310a7fd7b146102c157806318160ddd146102fe57806323b872dd146103295780632f745c5914610352576101ee565b806301ffc9a7146101f357806306fdde0314610230578063081812fc1461025b578063095ea7b314610298575b600080fd5b3480156101ff57600080fd5b5061021a60048036038101906102159190612fab565b6107a0565b60405161022791906134c9565b60405180910390f35b34801561023c57600080fd5b506102456107b2565b60405161025291906134e4565b60405180910390f35b34801561026757600080fd5b50610282600480360381019061027d9190612ffd565b610844565b60405161028f9190613462565b60405180910390f35b3480156102a457600080fd5b506102bf60048036038101906102ba9190612f6f565b6108c9565b005b3480156102cd57600080fd5b506102e860048036038101906102e39190612ffd565b6109e1565b6040516102f59190613806565b60405180910390f35b34801561030a57600080fd5b506103136109f9565b6040516103209190613806565b60405180910390f35b34801561033557600080fd5b50610350600480360381019061034b9190612e69565b610a06565b005b34801561035e57600080fd5b5061037960048036038101906103749190612f6f565b610a66565b6040516103869190613806565b60405180910390f35b34801561039b57600080fd5b506103a4610b0b565b005b3480156103b257600080fd5b506103bb610be0565b005b3480156103c957600080fd5b506103e460048036038101906103df9190612e69565b610c66565b005b3480156103f257600080fd5b5061040d60048036038101906104089190612ffd565b610c86565b005b34801561041b57600080fd5b50610424610ce2565b6040516104319190613806565b60405180910390f35b34801561044657600080fd5b50610461600480360381019061045c9190612ffd565b610ce8565b60405161046e9190613806565b60405180910390f35b34801561048357600080fd5b5061048c610d7f565b60405161049991906134c9565b60405180910390f35b3480156104ae57600080fd5b506104c960048036038101906104c49190612ffd565b610d96565b005b3480156104d757600080fd5b506104f260048036038101906104ed9190612ffd565b610eaa565b6040516104ff9190613462565b60405180910390f35b34801561051457600080fd5b5061052f600480360381019061052a9190612e04565b610f5c565b60405161053c9190613806565b60405180910390f35b34801561055157600080fd5b5061055a611014565b005b61057660048036038101906105719190612ffd565b61109c565b005b34801561058457600080fd5b5061058d61123d565b005b34801561059b57600080fd5b506105a46112c3565b6040516105b19190613462565b60405180910390f35b3480156105c657600080fd5b506105cf6112ed565b6040516105dc91906134e4565b60405180910390f35b3480156105f157600080fd5b506105fa61137f565b6040516106079190613806565b60405180910390f35b34801561061c57600080fd5b5061063760048036038101906106329190612f6f565b611384565b005b34801561064557600080fd5b50610660600480360381019061065b9190612f33565b61140e565b005b61067c60048036038101906106779190612ffd565b61158f565b005b34801561068a57600080fd5b506106a560048036038101906106a09190612eb8565b61164b565b005b3480156106b357600080fd5b506106ce60048036038101906106c99190612ffd565b6116ad565b6040516106db91906134e4565b60405180910390f35b3480156106f057600080fd5b5061070b60048036038101906107069190612e2d565b611754565b60405161071891906134c9565b60405180910390f35b34801561072d57600080fd5b5061074860048036038101906107439190612e04565b6117e8565b005b34801561075657600080fd5b5061075f6118e0565b60405161076c9190613806565b60405180910390f35b34801561078157600080fd5b5061078a6118e5565b6040516107979190613806565b60405180910390f35b60006107ab826118f0565b9050919050565b6060600080546107c190613a85565b80601f01602080910402602001604051908101604052809291908181526020018280546107ed90613a85565b801561083a5780601f1061080f5761010080835404028352916020019161083a565b820191906000526020600020905b81548152906001019060200180831161081d57829003601f168201915b5050505050905090565b600061084f8261196a565b61088e576040517f08c379a0000000000000000000000000000000000000000000000000000000008152600401610885906136a6565b60405180910390fd5b6004600083815260200190815260200160002060009054906101000a900473ffffffffffffffffffffffffffffffffffffffff169050919050565b60006108d482610eaa565b90508073ffffffffffffffffffffffffffffffffffffffff168373ffffffffffffffffffffffffffffffffffffffff161415610945576040517f08c379a000000000000000000000000000000000000000000000000000000000815260040161093c90613746565b60405180910390fd5b8073ffffffffffffffffffffffffffffffffffffffff166109646119d6565b73ffffffffffffffffffffffffffffffffffffffff16148061099357506109928161098d6119d6565b611754565b5b6109d2576040517f08c379a00000000000000000000000000000000000000000000000000000000081526004016109c990613626565b60405180910390fd5b6109dc83836119de565b505050565b600b6020528060005260406000206000915090505481565b6000600980549050905090565b610a17610a116119d6565b82611a97565b610a56576040517f08c379a0000000000000000000000000000000000000000000000000000000008152600401610a4d90613766565b60405180910390fd5b610a61838383611b75565b505050565b6000610a7183610f5c565b8210610ab2576040517f08c379a0000000000000000000000000000000000000000000000000000000008152600401610aa990613526565b60405180910390fd5b600760008473ffffffffffffffffffffffffffffffffffffffff1673ffffffffffffffffffffffffffffffffffffffff168152602001908152602001600020600083815260200190815260200160002054905092915050565b610b136119d6565b73ffffffffffffffffffffffffffffffffffffffff16610b316112c3565b73ffffffffffffffffffffffffffffffffffffffff1614610b87576040517f08c379a0000000000000000000000000000000000000000000000000000000008152600401610b7e906136e6565b60405180910390fd5b6000600c5490506000600c819055503373ffffffffffffffffffffffffffffffffffffffff166108fc829081150290604051600060405180830381858888f19350505050158015610bdc573d6000803e3d6000fd5b5050565b610be86119d6565b73ffffffffffffffffffffffffffffffffffffffff16610c066112c3565b73ffffffffffffffffffffffffffffffffffffffff1614610c5c576040517f08c379a0000000000000000000000000000000000000000000000000000000008152600401610c53906136e6565b60405180910390fd5b610c64611dd1565b565b610c818383836040518060200160405280600081525061164b565b505050565b610c97610c916119d6565b82611a97565b610cd6576040517f08c379a0000000000000000000000000000000000000000000000000000000008152600401610ccd906137e6565b60405180910390fd5b610cdf81611e73565b50565b600c5481565b6000610cf26109f9565b8210610d33576040517f08c379a0000000000000000000000000000000000000000000000000000000008152600401610d2a90613786565b60405180910390fd5b60098281548110610d6d577f4e487b7100000000000000000000000000000000000000000000000000000000600052603260045260246000fd5b90600052602060002001549050919050565b6000600660009054906101000a900460ff16905090565b3373ffffffffffffffffffffffffffffffffffffffff16610db682610eaa565b73ffffffffffffffffffffffffffffffffffffffff1614610dd657600080fd5b6000600b60008381526020019081526020016000205490506000600b600084815260200190815260200160002081905550610e1082610c86565b3373ffffffffffffffffffffffffffffffffffffffff166108fc829081150290604051600060405180830381858888f19350505050158015610e56573d6000803e3d6000fd5b50813373ffffffffffffffffffffffffffffffffffffffff167fa730e9806acb64016e59f9c2f0acc21bbb6605c8f5e2505b9663c594b9780a6083604051610e9e9190613806565b60405180910390a35050565b6000806002600084815260200190815260200160002060009054906101000a900473ffffffffffffffffffffffffffffffffffffffff169050600073ffffffffffffffffffffffffffffffffffffffff168173ffffffffffffffffffffffffffffffffffffffff161415610f53576040517f08c379a0000000000000000000000000000000000000000000000000000000008152600401610f4a90613666565b60405180910390fd5b80915050919050565b60008073ffffffffffffffffffffffffffffffffffffffff168273ffffffffffffffffffffffffffffffffffffffff161415610fcd576040517f08c379a0000000000000000000000000000000000000000000000000000000008152600401610fc490613646565b60405180910390fd5b600360008373ffffffffffffffffffffffffffffffffffffffff1673ffffffffffffffffffffffffffffffffffffffff168152602001908152602001600020549050919050565b61101c6119d6565b73ffffffffffffffffffffffffffffffffffffffff1661103a6112c3565b73ffffffffffffffffffffffffffffffffffffffff1614611090576040517f08c379a0000000000000000000000000000000000000000000000000000000008152600401611087906136e6565b60405180910390fd5b61109a6000611f84565b565b6110a4610d7f565b156110e4576040517f08c379a00000000000000000000000000000000000000000000000000000000081526004016110db90613606565b60405180910390fd5b6014811115611128576040517f08c379a000000000000000000000000000000000000000000000000000000000815260040161111f906136c6565b60405180910390fd5b601e816111336109f9565b61113d91906138ba565b111561117e576040517f08c379a0000000000000000000000000000000000000000000000000000000008152600401611175906137c6565b60405180910390fd5b6658d15e17628000816111919190613941565b3410156111d3576040517f08c379a00000000000000000000000000000000000000000000000000000000081526004016111ca906137a6565b60405180910390fd5b60005b818110156112395760006111e86109f9565b9050601e6111f46109f9565b101561122557611204338261204a565b6658d15e17628000600c600082825461121d91906138ba565b925050819055505b50808061123190613ae8565b9150506111d6565b5050565b6112456119d6565b73ffffffffffffffffffffffffffffffffffffffff166112636112c3565b73ffffffffffffffffffffffffffffffffffffffff16146112b9576040517f08c379a00000000000000000000000000000000000000000000000000000000081526004016112b0906136e6565b60405180910390fd5b6112c1612068565b565b6000600660019054906101000a900473ffffffffffffffffffffffffffffffffffffffff16905090565b6060600180546112fc90613a85565b80601f016020809104026020016040519081016040528092919081815260200182805461132890613a85565b80156113755780601f1061134a57610100808354040283529160200191611375565b820191906000526020600020905b81548152906001019060200180831161135857829003601f168201915b5050505050905090565b601e81565b61138c6119d6565b73ffffffffffffffffffffffffffffffffffffffff166113aa6112c3565b73ffffffffffffffffffffffffffffffffffffffff1614611400576040517f08c379a00000000000000000000000000000000000000000000000000000000081526004016113f7906136e6565b60405180910390fd5b61140a828261204a565b5050565b6114166119d6565b73ffffffffffffffffffffffffffffffffffffffff168273ffffffffffffffffffffffffffffffffffffffff161415611484576040517f08c379a000000000000000000000000000000000000000000000000000000000815260040161147b906135c6565b60405180910390fd5b80600560006114916119d6565b73ffffffffffffffffffffffffffffffffffffffff1673ffffffffffffffffffffffffffffffffffffffff16815260200190815260200160002060008473ffffffffffffffffffffffffffffffffffffffff1673ffffffffffffffffffffffffffffffffffffffff16815260200190815260200160002060006101000a81548160ff0219169083151502179055508173ffffffffffffffffffffffffffffffffffffffff1661153e6119d6565b73ffffffffffffffffffffffffffffffffffffffff167f17307eab39ab6107e8899845ad3d59bd9653f200f220920489ca2b5937696c318360405161158391906134c9565b60405180910390a35050565b3373ffffffffffffffffffffffffffffffffffffffff166115af82610eaa565b73ffffffffffffffffffffffffffffffffffffffff16146115cf57600080fd5b34600b600083815260200190815260200160002060008282546115f291906138ba565b92505081905550803373ffffffffffffffffffffffffffffffffffffffff167f90890809c654f11d6e72a28fa60149770a0d11ec6c92319d6ceb2bb0a4ea1a15346040516116409190613806565b60405180910390a350565b61165c6116566119d6565b83611a97565b61169b576040517f08c379a000000000000000000000000000000000000000000000000000000000815260040161169290613766565b60405180910390fd5b6116a78484848461210b565b50505050565b60606116b88261196a565b6116f7576040517f08c379a00000000000000000000000000000000000000000000000000000000081526004016116ee90613726565b60405180910390fd5b6000611701612167565b90506000815111611721576040518060200160405280600081525061174c565b8061172b8461217e565b60405160200161173c92919061343e565b6040516020818303038152906040525b915050919050565b6000600560008473ffffffffffffffffffffffffffffffffffffffff1673ffffffffffffffffffffffffffffffffffffffff16815260200190815260200160002060008373ffffffffffffffffffffffffffffffffffffffff1673ffffffffffffffffffffffffffffffffffffffff16815260200190815260200160002060009054906101000a900460ff16905092915050565b6117f06119d6565b73ffffffffffffffffffffffffffffffffffffffff1661180e6112c3565b73ffffffffffffffffffffffffffffffffffffffff1614611864576040517f08c379a000000000000000000000000000000000000000000000000000000000815260040161185b906136e6565b60405180910390fd5b600073ffffffffffffffffffffffffffffffffffffffff168173ffffffffffffffffffffffffffffffffffffffff1614156118d4576040517f08c379a00000000000000000000000000000000000000000000000000000000081526004016118cb90613566565b60405180910390fd5b6118dd81611f84565b50565b601481565b6658d15e1762800081565b60007f780e9d63000000000000000000000000000000000000000000000000000000007bffffffffffffffffffffffffffffffffffffffffffffffffffffffff1916827bffffffffffffffffffffffffffffffffffffffffffffffffffffffff1916148061196357506119628261232b565b5b9050919050565b60008073ffffffffffffffffffffffffffffffffffffffff166002600084815260200190815260200160002060009054906101000a900473ffffffffffffffffffffffffffffffffffffffff1673ffffffffffffffffffffffffffffffffffffffff1614159050919050565b600033905090565b816004600083815260200190815260200160002060006101000a81548173ffffffffffffffffffffffffffffffffffffffff021916908373ffffffffffffffffffffffffffffffffffffffff160217905550808273ffffffffffffffffffffffffffffffffffffffff16611a5183610eaa565b73ffffffffffffffffffffffffffffffffffffffff167f8c5be1e5ebec7d5bd14f71427d1e84f3dd0314c0f7b2291e5b200ac8c7c3b92560405160405180910390a45050565b6000611aa28261196a565b611ae1576040517f08c379a0000000000000000000000000000000000000000000000000000000008152600401611ad8906135e6565b60405180910390fd5b6000611aec83610eaa565b90508073ffffffffffffffffffffffffffffffffffffffff168473ffffffffffffffffffffffffffffffffffffffff161480611b5b57508373ffffffffffffffffffffffffffffffffffffffff16611b4384610844565b73ffffffffffffffffffffffffffffffffffffffff16145b80611b6c5750611b6b8185611754565b5b91505092915050565b8273ffffffffffffffffffffffffffffffffffffffff16611b9582610eaa565b73ffffffffffffffffffffffffffffffffffffffff1614611beb576040517f08c379a0000000000000000000000000000000000000000000000000000000008152600401611be290613706565b60405180910390fd5b600073ffffffffffffffffffffffffffffffffffffffff168273ffffffffffffffffffffffffffffffffffffffff161415611c5b576040517f08c379a0000000000000000000000000000000000000000000000000000000008152600401611c52906135a6565b60405180910390fd5b611c6683838361240d565b611c716000826119de565b6001600360008573ffffffffffffffffffffffffffffffffffffffff1673ffffffffffffffffffffffffffffffffffffffff1681526020019081526020016000206000828254611cc1919061399b565b925050819055506001600360008473ffffffffffffffffffffffffffffffffffffffff1673ffffffffffffffffffffffffffffffffffffffff1681526020019081526020016000206000828254611d1891906138ba565b92505081905550816002600083815260200190815260200160002060006101000a81548173ffffffffffffffffffffffffffffffffffffffff021916908373ffffffffffffffffffffffffffffffffffffffff160217905550808273ffffffffffffffffffffffffffffffffffffffff168473ffffffffffffffffffffffffffffffffffffffff167fddf252ad1be2c89b69c2b068fc378daa952ba7f163c4a11628f55a4df523b3ef60405160405180910390a4505050565b611dd9610d7f565b611e18576040517f08c379a0000000000000000000000000000000000000000000000000000000008152600401611e0f90613506565b60405180910390fd5b6000600660006101000a81548160ff0219169083151502179055507f5db9ee0a495bf2e6ff9c91a7834c1ba4fdd244a5e8aa4e537bd38aeae4b073aa611e5c6119d6565b604051611e699190613462565b60405180910390a1565b6000611e7e82610eaa565b9050611e8c8160008461240d565b611e976000836119de565b6001600360008373ffffffffffffffffffffffffffffffffffffffff1673ffffffffffffffffffffffffffffffffffffffff1681526020019081526020016000206000828254611ee7919061399b565b925050819055506002600083815260200190815260200160002060006101000a81549073ffffffffffffffffffffffffffffffffffffffff021916905581600073ffffffffffffffffffffffffffffffffffffffff168273ffffffffffffffffffffffffffffffffffffffff167fddf252ad1be2c89b69c2b068fc378daa952ba7f163c4a11628f55a4df523b3ef60405160405180910390a45050565b6000600660019054906101000a900473ffffffffffffffffffffffffffffffffffffffff16905081600660016101000a81548173ffffffffffffffffffffffffffffffffffffffff021916908373ffffffffffffffffffffffffffffffffffffffff1602179055508173ffffffffffffffffffffffffffffffffffffffff168173ffffffffffffffffffffffffffffffffffffffff167f8be0079c531659141344cd1fd0a4f28419497f9722a3daafe3b4186f6b6457e060405160405180910390a35050565b612064828260405180602001604052806000815250612465565b5050565b612070610d7f565b156120b0576040517f08c379a00000000000000000000000000000000000000000000000000000000081526004016120a790613606565b60405180910390fd5b6001600660006101000a81548160ff0219169083151502179055507f62e78cea01bee320cd4e420270b5ea74000d11b0c9f74754ebdbfc544b05a2586120f46119d6565b6040516121019190613462565b60405180910390a1565b612116848484611b75565b612122848484846124c0565b612161576040517f08c379a000000000000000000000000000000000000000000000000000000000815260040161215890613546565b60405180910390fd5b50505050565b606060405180602001604052806000815250905090565b606060008214156121c6576040518060400160405280600181526020017f30000000000000000000000000000000000000000000000000000000000000008152509050612326565b600082905060005b600082146121f85780806121e190613ae8565b915050600a826121f19190613910565b91506121ce565b60008167ffffffffffffffff81111561223a577f4e487b7100000000000000000000000000000000000000000000000000000000600052604160045260246000fd5b6040519080825280601f01601f19166020018201604052801561226c5781602001600182028036833780820191505090505b5090505b6000851461231f57600182612285919061399b565b9150600a856122949190613b31565b60306122a091906138ba565b60f81b8183815181106122dc577f4e487b7100000000000000000000000000000000000000000000000000000000600052603260045260246000fd5b60200101907effffffffffffffffffffffffffffffffffffffffffffffffffffffffffffff1916908160001a905350600a856123189190613910565b9450612270565b8093505050505b919050565b60007f80ac58cd000000000000000000000000000000000000000000000000000000007bffffffffffffffffffffffffffffffffffffffffffffffffffffffff1916827bffffffffffffffffffffffffffffffffffffffffffffffffffffffff191614806123f657507f5b5e139f000000000000000000000000000000000000000000000000000000007bffffffffffffffffffffffffffffffffffffffffffffffffffffffff1916827bffffffffffffffffffffffffffffffffffffffffffffffffffffffff1916145b80612406575061240582612657565b5b9050919050565b612415610d7f565b15612455576040517f08c379a000000000000000000000000000000000000000000000000000000000815260040161244c90613606565b60405180910390fd5b6124608383836126c1565b505050565b61246f83836127d5565b61247c60008484846124c0565b6124bb576040517f08c379a00000000000000000000000000000000000000000000000000000000081526004016124b290613546565b60405180910390fd5b505050565b60006124e18473ffffffffffffffffffffffffffffffffffffffff166129a3565b1561264a578373ffffffffffffffffffffffffffffffffffffffff1663150b7a0261250a6119d6565b8786866040518563ffffffff1660e01b815260040161252c949392919061347d565b602060405180830381600087803b15801561254657600080fd5b505af192505050801561257757506040513d601f19601f820116820180604052508101906125749190612fd4565b60015b6125fa573d80600081146125a7576040519150601f19603f3d011682016040523d82523d6000602084013e6125ac565b606091505b506000815114156125f2576040517f08c379a00000000000000000000000000000000000000000000000000000000081526004016125e990613546565b60405180910390fd5b805181602001fd5b63150b7a0260e01b7bffffffffffffffffffffffffffffffffffffffffffffffffffffffff1916817bffffffffffffffffffffffffffffffffffffffffffffffffffffffff19161491505061264f565b600190505b949350505050565b60007f01ffc9a7000000000000000000000000000000000000000000000000000000007bffffffffffffffffffffffffffffffffffffffffffffffffffffffff1916827bffffffffffffffffffffffffffffffffffffffffffffffffffffffff1916149050919050565b6126cc8383836129b6565b600073ffffffffffffffffffffffffffffffffffffffff168373ffffffffffffffffffffffffffffffffffffffff16141561270f5761270a816129bb565b61274e565b8173ffffffffffffffffffffffffffffffffffffffff168373ffffffffffffffffffffffffffffffffffffffff161461274d5761274c8382612a04565b5b5b600073ffffffffffffffffffffffffffffffffffffffff168273ffffffffffffffffffffffffffffffffffffffff1614156127915761278c81612b71565b6127d0565b8273ffffffffffffffffffffffffffffffffffffffff168273ffffffffffffffffffffffffffffffffffffffff16146127cf576127ce8282612cb4565b5b5b505050565b600073ffffffffffffffffffffffffffffffffffffffff168273ffffffffffffffffffffffffffffffffffffffff161415612845576040517f08c379a000000000000000000000000000000000000000000000000000000000815260040161283c90613686565b60405180910390fd5b61284e8161196a565b1561288e576040517f08c379a000000000000000000000000000000000000000000000000000000000815260040161288590613586565b60405180910390fd5b61289a6000838361240d565b6001600360008473ffffffffffffffffffffffffffffffffffffffff1673ffffffffffffffffffffffffffffffffffffffff16815260200190815260200160002060008282546128ea91906138ba565b92505081905550816002600083815260200190815260200160002060006101000a81548173ffffffffffffffffffffffffffffffffffffffff021916908373ffffffffffffffffffffffffffffffffffffffff160217905550808273ffffffffffffffffffffffffffffffffffffffff16600073ffffffffffffffffffffffffffffffffffffffff167fddf252ad1be2c89b69c2b068fc378daa952ba7f163c4a11628f55a4df523b3ef60405160405180910390a45050565b600080823b905060008111915050919050565b505050565b600980549050600a600083815260200190815260200160002081905550600981908060018154018082558091505060019003906000526020600020016000909190919091505550565b60006001612a1184610f5c565b612a1b919061399b565b9050600060086000848152602001908152602001600020549050818114612b00576000600760008673ffffffffffffffffffffffffffffffffffffffff1673ffffffffffffffffffffffffffffffffffffffff168152602001908152602001600020600084815260200190815260200160002054905080600760008773ffffffffffffffffffffffffffffffffffffffff1673ffffffffffffffffffffffffffffffffffffffff168152602001908152602001600020600084815260200190815260200160002081905550816008600083815260200190815260200160002081905550505b6008600084815260200190815260200160002060009055600760008573ffffffffffffffffffffffffffffffffffffffff1673ffffffffffffffffffffffffffffffffffffffff16815260200190815260200160002060008381526020019081526020016000206000905550505050565b60006001600980549050612b85919061399b565b90506000600a6000848152602001908152602001600020549050600060098381548110612bdb577f4e487b7100000000000000000000000000000000000000000000000000000000600052603260045260246000fd5b906000526020600020015490508060098381548110612c23577f4e487b7100000000000000000000000000000000000000000000000000000000600052603260045260246000fd5b906000526020600020018190555081600a600083815260200190815260200160002081905550600a6000858152602001908152602001600020600090556009805480612c98577f4e487b7100000000000000000000000000000000000000000000000000000000600052603160045260246000fd5b6001900381819060005260206000200160009055905550505050565b6000612cbf83610f5c565b905081600760008573ffffffffffffffffffffffffffffffffffffffff1673ffffffffffffffffffffffffffffffffffffffff168152602001908152602001600020600083815260200190815260200160002081905550806008600084815260200190815260200160002081905550505050565b6000612d46612d4184613846565b613821565b905082815260208101848484011115612d5e57600080fd5b612d69848285613a43565b509392505050565b600081359050612d8081614241565b92915050565b600081359050612d9581614258565b92915050565b600081359050612daa8161426f565b92915050565b600081519050612dbf8161426f565b92915050565b600082601f830112612dd657600080fd5b8135612de6848260208601612d33565b91505092915050565b600081359050612dfe81614286565b92915050565b600060208284031215612e1657600080fd5b6000612e2484828501612d71565b91505092915050565b60008060408385031215612e4057600080fd5b6000612e4e85828601612d71565b9250506020612e5f85828601612d71565b9150509250929050565b600080600060608486031215612e7e57600080fd5b6000612e8c86828701612d71565b9350506020612e9d86828701612d71565b9250506040612eae86828701612def565b9150509250925092565b60008060008060808587031215612ece57600080fd5b6000612edc87828801612d71565b9450506020612eed87828801612d71565b9350506040612efe87828801612def565b925050606085013567ffffffffffffffff811115612f1b57600080fd5b612f2787828801612dc5565b91505092959194509250565b60008060408385031215612f4657600080fd5b6000612f5485828601612d71565b9250506020612f6585828601612d86565b9150509250929050565b60008060408385031215612f8257600080fd5b6000612f9085828601612d71565b9250506020612fa185828601612def565b9150509250929050565b600060208284031215612fbd57600080fd5b6000612fcb84828501612d9b565b91505092915050565b600060208284031215612fe657600080fd5b6000612ff484828501612db0565b91505092915050565b60006020828403121561300f57600080fd5b600061301d84828501612def565b91505092915050565b61302f816139cf565b82525050565b61303e816139e1565b82525050565b600061304f82613877565b613059818561388d565b9350613069818560208601613a52565b61307281613c1e565b840191505092915050565b600061308882613882565b613092818561389e565b93506130a2818560208601613a52565b6130ab81613c1e565b840191505092915050565b60006130c182613882565b6130cb81856138af565b93506130db818560208601613a52565b80840191505092915050565b60006130f460148361389e565b91506130ff82613c2f565b602082019050919050565b6000613117602b8361389e565b915061312282613c58565b604082019050919050565b600061313a60328361389e565b915061314582613ca7565b604082019050919050565b600061315d60268361389e565b915061316882613cf6565b604082019050919050565b6000613180601c8361389e565b915061318b82613d45565b602082019050919050565b60006131a360248361389e565b91506131ae82613d6e565b604082019050919050565b60006131c660198361389e565b91506131d182613dbd565b602082019050919050565b60006131e9602c8361389e565b91506131f482613de6565b604082019050919050565b600061320c60108361389e565b915061321782613e35565b602082019050919050565b600061322f60388361389e565b915061323a82613e5e565b604082019050919050565b6000613252602a8361389e565b915061325d82613ead565b604082019050919050565b600061327560298361389e565b915061328082613efc565b604082019050919050565b600061329860208361389e565b91506132a382613f4b565b602082019050919050565b60006132bb602c8361389e565b91506132c682613f74565b604082019050919050565b60006132de60108361389e565b91506132e982613fc3565b602082019050919050565b600061330160208361389e565b915061330c82613fec565b602082019050919050565b600061332460298361389e565b915061332f82614015565b604082019050919050565b6000613347602f8361389e565b915061335282614064565b604082019050919050565b600061336a60218361389e565b9150613375826140b3565b604082019050919050565b600061338d60318361389e565b915061339882614102565b604082019050919050565b60006133b0602c8361389e565b91506133bb82614151565b604082019050919050565b60006133d360118361389e565b91506133de826141a0565b602082019050919050565b60006133f6601c8361389e565b9150613401826141c9565b602082019050919050565b600061341960308361389e565b9150613424826141f2565b604082019050919050565b61343881613a39565b82525050565b600061344a82856130b6565b915061345682846130b6565b91508190509392505050565b60006020820190506134776000830184613026565b92915050565b60006080820190506134926000830187613026565b61349f6020830186613026565b6134ac604083018561342f565b81810360608301526134be8184613044565b905095945050505050565b60006020820190506134de6000830184613035565b92915050565b600060208201905081810360008301526134fe818461307d565b905092915050565b6000602082019050818103600083015261351f816130e7565b9050919050565b6000602082019050818103600083015261353f8161310a565b9050919050565b6000602082019050818103600083015261355f8161312d565b9050919050565b6000602082019050818103600083015261357f81613150565b9050919050565b6000602082019050818103600083015261359f81613173565b9050919050565b600060208201905081810360008301526135bf81613196565b9050919050565b600060208201905081810360008301526135df816131b9565b9050919050565b600060208201905081810360008301526135ff816131dc565b9050919050565b6000602082019050818103600083015261361f816131ff565b9050919050565b6000602082019050818103600083015261363f81613222565b9050919050565b6000602082019050818103600083015261365f81613245565b9050919050565b6000602082019050818103600083015261367f81613268565b9050919050565b6000602082019050818103600083015261369f8161328b565b9050919050565b600060208201905081810360008301526136bf816132ae565b9050919050565b600060208201905081810360008301526136df816132d1565b9050919050565b600060208201905081810360008301526136ff816132f4565b9050919050565b6000602082019050818103600083015261371f81613317565b9050919050565b6000602082019050818103600083015261373f8161333a565b9050919050565b6000602082019050818103600083015261375f8161335d565b9050919050565b6000602082019050818103600083015261377f81613380565b9050919050565b6000602082019050818103600083015261379f816133a3565b9050919050565b600060208201905081810360008301526137bf816133c6565b9050919050565b600060208201905081810360008301526137df816133e9565b9050919050565b600060208201905081810360008301526137ff8161340c565b9050919050565b600060208201905061381b600083018461342f565b92915050565b600061382b61383c565b90506138378282613ab7565b919050565b6000604051905090565b600067ffffffffffffffff82111561386157613860613bef565b5b61386a82613c1e565b9050602081019050919050565b600081519050919050565b600081519050919050565b600082825260208201905092915050565b600082825260208201905092915050565b600081905092915050565b60006138c582613a39565b91506138d083613a39565b9250827fffffffffffffffffffffffffffffffffffffffffffffffffffffffffffffffff0382111561390557613904613b62565b5b828201905092915050565b600061391b82613a39565b915061392683613a39565b92508261393657613935613b91565b5b828204905092915050565b600061394c82613a39565b915061395783613a39565b9250817fffffffffffffffffffffffffffffffffffffffffffffffffffffffffffffffff04831182151516156139905761398f613b62565b5b828202905092915050565b60006139a682613a39565b91506139b183613a39565b9250828210156139c4576139c3613b62565b5b828203905092915050565b60006139da82613a19565b9050919050565b60008115159050919050565b60007fffffffff0000000000000000000000000000000000000000000000000000000082169050919050565b600073ffffffffffffffffffffffffffffffffffffffff82169050919050565b6000819050919050565b82818337600083830152505050565b60005b83811015613a70578082015181840152602081019050613a55565b83811115613a7f576000848401525b50505050565b60006002820490506001821680613a9d57607f821691505b60208210811415613ab157613ab0613bc0565b5b50919050565b613ac082613c1e565b810181811067ffffffffffffffff82111715613adf57613ade613bef565b5b80604052505050565b6000613af382613a39565b91507fffffffffffffffffffffffffffffffffffffffffffffffffffffffffffffffff821415613b2657613b25613b62565b5b600182019050919050565b6000613b3c82613a39565b9150613b4783613a39565b925082613b5757613b56613b91565b5b828206905092915050565b7f4e487b7100000000000000000000000000000000000000000000000000000000600052601160045260246000fd5b7f4e487b7100000000000000000000000000000000000000000000000000000000600052601260045260246000fd5b7f4e487b7100000000000000000000000000000000000000000000000000000000600052602260045260246000fd5b7f4e487b7100000000000000000000000000000000000000000000000000000000600052604160045260246000fd5b6000601f19601f8301169050919050565b7f5061757361626c653a206e6f7420706175736564000000000000000000000000600082015250565b7f455243373231456e756d657261626c653a206f776e657220696e646578206f7560008201527f74206f6620626f756e6473000000000000000000000000000000000000000000602082015250565b7f4552433732313a207472616e7366657220746f206e6f6e20455243373231526560008201527f63656976657220696d706c656d656e7465720000000000000000000000000000602082015250565b7f4f776e61626c653a206e6577206f776e657220697320746865207a65726f206160008201527f6464726573730000000000000000000000000000000000000000000000000000602082015250565b7f4552433732313a20746f6b656e20616c7265616479206d696e74656400000000600082015250565b7f4552433732313a207472616e7366657220746f20746865207a65726f2061646460008201527f7265737300000000000000000000000000000000000000000000000000000000602082015250565b7f4552433732313a20617070726f766520746f2063616c6c657200000000000000600082015250565b7f4552433732313a206f70657261746f7220717565727920666f72206e6f6e657860008201527f697374656e7420746f6b656e0000000000000000000000000000000000000000602082015250565b7f5061757361626c653a2070617573656400000000000000000000000000000000600082015250565b7f4552433732313a20617070726f76652063616c6c6572206973206e6f74206f7760008201527f6e6572206e6f7220617070726f76656420666f7220616c6c0000000000000000602082015250565b7f4552433732313a2062616c616e636520717565727920666f7220746865207a6560008201527f726f206164647265737300000000000000000000000000000000000000000000602082015250565b7f4552433732313a206f776e657220717565727920666f72206e6f6e657869737460008201527f656e7420746f6b656e0000000000000000000000000000000000000000000000602082015250565b7f4552433732313a206d696e7420746f20746865207a65726f2061646472657373600082015250565b7f4552433732313a20617070726f76656420717565727920666f72206e6f6e657860008201527f697374656e7420746f6b656e0000000000000000000000000000000000000000602082015250565b7f4d6178206f6620323020546f6b656e7300000000000000000000000000000000600082015250565b7f4f776e61626c653a2063616c6c6572206973206e6f7420746865206f776e6572600082015250565b7f4552433732313a207472616e73666572206f6620746f6b656e2074686174206960008201527f73206e6f74206f776e0000000000000000000000000000000000000000000000602082015250565b7f4552433732314d657461646174613a2055524920717565727920666f72206e6f60008201527f6e6578697374656e7420746f6b656e0000000000000000000000000000000000602082015250565b7f4552433732313a20617070726f76616c20746f2063757272656e74206f776e6560008201527f7200000000000000000000000000000000000000000000000000000000000000602082015250565b7f4552433732313a207472616e736665722063616c6c6572206973206e6f74206f60008201527f776e6572206e6f7220617070726f766564000000000000000000000000000000602082015250565b7f455243373231456e756d657261626c653a20676c6f62616c20696e646578206f60008201527f7574206f6620626f756e64730000000000000000000000000000000000000000602082015250565b7f496e737566696369656e74204574686572000000000000000000000000000000600082015250565b7f507572636861736520776f756c642065786365656420737570706c7900000000600082015250565b7f4552433732314275726e61626c653a2063616c6c6572206973206e6f74206f7760008201527f6e6572206e6f7220617070726f76656400000000000000000000000000000000602082015250565b61424a816139cf565b811461425557600080fd5b50565b614261816139e1565b811461426c57600080fd5b50565b614278816139ed565b811461428357600080fd5b50565b61428f81613a39565b811461429a57600080fd5b5056fea2646970667358221220a4a41701d8388e1e7d963800c5b1b839e18c0222f617a1a12121905cc772dc8b64736f6c63430008020033",
  "immutableReferences": {},
  "source": "// SPDX-License-Identifier: MIT\npragma solidity ^0.8.2;\n\nimport \"@openzeppelin/contracts/token/ERC721/ERC721.sol\";\nimport \"@openzeppelin/contracts/security/Pausable.sol\";\nimport \"@openzeppelin/contracts/access/Ownable.sol\";\nimport \"@openzeppelin/contracts/token/ERC721/extensions/ERC721Burnable.sol\";\nimport \"@openzeppelin/contracts/token/ERC721/extensions/ERC721Enumerable.sol\";\n\ncontract HODLPigs is\n    ERC721,\n    Pausable,\n    Ownable,\n    ERC721Burnable,\n    ERC721Enumerable\n{\n    // Total ledger (from deposits)\n    mapping(uint256 => uint256) public ledger;\n    // Total sales (for withdraw\n    uint256 public saleLedger = 0;\n    // Price per pig\n    uint256 public constant pigPrice = 25000000000000000; //0.025\n    // Max pig purchased in one Tx\n    uint256 public constant maxPerTx = 20;\n    // Max Pig supply\n    uint256 public constant pigSupply = 30;\n\n    // Events\n    event Deposit(address indexed from, uint256 indexed tokenId, uint256 value);\n    event Cracked(\n        address indexed owner,\n        uint256 indexed tokenId,\n        uint256 value\n    );\n\n    constructor() ERC721(\"HODLPIGS\", \"HDPIG\") {\n        pause();\n    }\n\n    function withdraw() public onlyOwner {\n        uint256 balance = saleLedger;\n        saleLedger = 0;\n        payable(msg.sender).transfer(balance);\n    }\n\n    function pause() public onlyOwner {\n        _pause();\n    }\n\n    function unpause() public onlyOwner {\n        _unpause();\n    }\n\n    function safeMint(address to, uint256 tokenId) public onlyOwner {\n        _safeMint(to, tokenId);\n    }\n\n    function deposit(uint256 tokenId) public payable {\n        // require that the sender owns the token\n        require(ownerOf(tokenId) == msg.sender);\n        ledger[tokenId] += msg.value;\n        emit Deposit(msg.sender, tokenId, msg.value);\n    }\n\n    function crackPig(uint256 tokenId) public {\n        // require that the sender owns the token\n        require(ownerOf(tokenId) == msg.sender);\n\n        uint256 balance = ledger[tokenId];\n        ledger[tokenId] = 0;\n\n        // effect\n        burn(tokenId);\n        payable(msg.sender).transfer(balance);\n        emit Cracked(msg.sender, tokenId, balance);\n    }\n\n    function mintPig(uint256 numberOfTokens) public payable whenNotPaused {\n        require(numberOfTokens <= maxPerTx, \"Max of 20 Tokens\");\n        require(\n            totalSupply() + numberOfTokens <= pigSupply,\n            \"Purchase would exceed supply\"\n        );\n        require(msg.value >= numberOfTokens * pigPrice, \"Insuficient Ether\");\n\n        for (uint256 i = 0; i < numberOfTokens; i++) {\n            uint256 mintIdx = totalSupply();\n            if (totalSupply() < pigSupply) {\n                _safeMint(msg.sender, mintIdx);\n                saleLedger += pigPrice;\n            }\n        }\n    }\n\n    function _beforeTokenTransfer(\n        address from,\n        address to,\n        uint256 tokenId\n    ) internal override(ERC721, ERC721Enumerable) whenNotPaused {\n        super._beforeTokenTransfer(from, to, tokenId);\n    }\n\n    function supportsInterface(bytes4 interfaceId)\n        public\n        view\n        override(ERC721, ERC721Enumerable)\n        returns (bool)\n    {\n        return super.supportsInterface(interfaceId);\n    }\n}\n",
  "sourcePath": "/Users/raid55/LocalDocs/repos/hodlpigs_contract/contracts/HODLPigs.sol",
  "compiler": {
    "name": "solc",
    "version": "0.8.2+commit.661d1103.Emscripten.clang"
  },
  "schemaVersion": "3.4.3",
  "updatedAt": "2021-09-08T09:41:45.496Z",
  "networkType": "ethereum",
  "devdoc": {
    "kind": "dev",
    "methods": {
      "approve(address,uint256)": {
        "details": "See {IERC721-approve}."
      },
      "balanceOf(address)": {
        "details": "See {IERC721-balanceOf}."
      },
      "burn(uint256)": {
        "details": "Burns `tokenId`. See {ERC721-_burn}. Requirements: - The caller must own `tokenId` or be an approved operator."
      },
      "getApproved(uint256)": {
        "details": "See {IERC721-getApproved}."
      },
      "isApprovedForAll(address,address)": {
        "details": "See {IERC721-isApprovedForAll}."
      },
      "name()": {
        "details": "See {IERC721Metadata-name}."
      },
      "owner()": {
        "details": "Returns the address of the current owner."
      },
      "ownerOf(uint256)": {
        "details": "See {IERC721-ownerOf}."
      },
      "paused()": {
        "details": "Returns true if the contract is paused, and false otherwise."
      },
      "renounceOwnership()": {
        "details": "Leaves the contract without owner. It will not be possible to call `onlyOwner` functions anymore. Can only be called by the current owner. NOTE: Renouncing ownership will leave the contract without an owner, thereby removing any functionality that is only available to the owner."
      },
      "safeTransferFrom(address,address,uint256)": {
        "details": "See {IERC721-safeTransferFrom}."
      },
      "safeTransferFrom(address,address,uint256,bytes)": {
        "details": "See {IERC721-safeTransferFrom}."
      },
      "setApprovalForAll(address,bool)": {
        "details": "See {IERC721-setApprovalForAll}."
      },
      "symbol()": {
        "details": "See {IERC721Metadata-symbol}."
      },
      "tokenByIndex(uint256)": {
        "details": "See {IERC721Enumerable-tokenByIndex}."
      },
      "tokenOfOwnerByIndex(address,uint256)": {
        "details": "See {IERC721Enumerable-tokenOfOwnerByIndex}."
      },
      "tokenURI(uint256)": {
        "details": "See {IERC721Metadata-tokenURI}."
      },
      "totalSupply()": {
        "details": "See {IERC721Enumerable-totalSupply}."
      },
      "transferFrom(address,address,uint256)": {
        "details": "See {IERC721-transferFrom}."
      },
      "transferOwnership(address)": {
        "details": "Transfers ownership of the contract to a new account (`newOwner`). Can only be called by the current owner."
      }
    },
    "version": 1
  },
  "userdoc": {
    "kind": "user",
    "methods": {},
    "version": 1
  }
}