{
  "contractName": "Pigs",
  "abi": [
    {
      "inputs": [],
      "stateMutability": "nonpayable",
      "type": "constructor"
    },
    {
      "anonymous": false,
      "inputs": [
        {
          "indexed": true,
          "internalType": "address",
          "name": "owner",
          "type": "address"
        },
        {
          "indexed": true,
          "internalType": "address",
          "name": "approved",
          "type": "address"
        },
        {
          "indexed": true,
          "internalType": "uint256",
          "name": "tokenId",
          "type": "uint256"
        }
      ],
      "name": "Approval",
      "type": "event"
    },
    {
      "anonymous": false,
      "inputs": [
        {
          "indexed": true,
          "internalType": "address",
          "name": "owner",
          "type": "address"
        },
        {
          "indexed": true,
          "internalType": "address",
          "name": "operator",
          "type": "address"
        },
        {
          "indexed": false,
          "internalType": "bool",
          "name": "approved",
          "type": "bool"
        }
      ],
      "name": "ApprovalForAll",
      "type": "event"
    },
    {
      "anonymous": false,
      "inputs": [
        {
          "indexed": true,
          "internalType": "address",
          "name": "owner",
          "type": "address"
        },
        {
          "indexed": true,
          "internalType": "uint256",
          "name": "tokenId",
          "type": "uint256"
        },
        {
          "indexed": false,
          "internalType": "uint256",
          "name": "value",
          "type": "uint256"
        }
      ],
      "name": "Cracked",
      "type": "event"
    },
    {
      "anonymous": false,
      "inputs": [
        {
          "indexed": true,
          "internalType": "address",
          "name": "from",
          "type": "address"
        },
        {
          "indexed": true,
          "internalType": "uint256",
          "name": "tokenId",
          "type": "uint256"
        },
        {
          "indexed": false,
          "internalType": "uint256",
          "name": "value",
          "type": "uint256"
        }
      ],
      "name": "Deposit",
      "type": "event"
    },
    {
      "anonymous": false,
      "inputs": [
        {
          "indexed": true,
          "internalType": "address",
          "name": "previousOwner",
          "type": "address"
        },
        {
          "indexed": true,
          "internalType": "address",
          "name": "newOwner",
          "type": "address"
        }
      ],
      "name": "OwnershipTransferred",
      "type": "event"
    },
    {
      "anonymous": false,
      "inputs": [
        {
          "indexed": false,
          "internalType": "address",
          "name": "account",
          "type": "address"
        }
      ],
      "name": "Paused",
      "type": "event"
    },
    {
      "anonymous": false,
      "inputs": [
        {
          "indexed": true,
          "internalType": "address",
          "name": "from",
          "type": "address"
        },
        {
          "indexed": true,
          "internalType": "address",
          "name": "to",
          "type": "address"
        },
        {
          "indexed": true,
          "internalType": "uint256",
          "name": "tokenId",
          "type": "uint256"
        }
      ],
      "name": "Transfer",
      "type": "event"
    },
    {
      "anonymous": false,
      "inputs": [
        {
          "indexed": false,
          "internalType": "address",
          "name": "account",
          "type": "address"
        }
      ],
      "name": "Unpaused",
      "type": "event"
    },
    {
      "inputs": [],
      "name": "ORIGINAL_PIG_SUPPLY",
      "outputs": [
        {
          "internalType": "uint256",
          "name": "",
          "type": "uint256"
        }
      ],
      "stateMutability": "view",
      "type": "function"
    },
    {
      "inputs": [
        {
          "internalType": "address",
          "name": "to",
          "type": "address"
        },
        {
          "internalType": "uint256",
          "name": "tokenId",
          "type": "uint256"
        }
      ],
      "name": "approve",
      "outputs": [],
      "stateMutability": "nonpayable",
      "type": "function"
    },
    {
      "inputs": [
        {
          "internalType": "address",
          "name": "owner",
          "type": "address"
        }
      ],
      "name": "balanceOf",
      "outputs": [
        {
          "internalType": "uint256",
          "name": "",
          "type": "uint256"
        }
      ],
      "stateMutability": "view",
      "type": "function"
    },
    {
      "inputs": [
        {
          "internalType": "uint256",
          "name": "tokenId",
          "type": "uint256"
        }
      ],
      "name": "getApproved",
      "outputs": [
        {
          "internalType": "address",
          "name": "",
          "type": "address"
        }
      ],
      "stateMutability": "view",
      "type": "function"
    },
    {
      "inputs": [
        {
          "internalType": "address",
          "name": "owner",
          "type": "address"
        },
        {
          "internalType": "address",
          "name": "operator",
          "type": "address"
        }
      ],
      "name": "isApprovedForAll",
      "outputs": [
        {
          "internalType": "bool",
          "name": "",
          "type": "bool"
        }
      ],
      "stateMutability": "view",
      "type": "function"
    },
    {
      "inputs": [
        {
          "internalType": "uint256",
          "name": "",
          "type": "uint256"
        }
      ],
      "name": "ledger",
      "outputs": [
        {
          "internalType": "uint256",
          "name": "",
          "type": "uint256"
        }
      ],
      "stateMutability": "view",
      "type": "function"
    },
    {
      "inputs": [],
      "name": "maxPerTx",
      "outputs": [
        {
          "internalType": "uint256",
          "name": "",
          "type": "uint256"
        }
      ],
      "stateMutability": "view",
      "type": "function"
    },
    {
      "inputs": [],
      "name": "mintIdx",
      "outputs": [
        {
          "internalType": "uint256",
          "name": "",
          "type": "uint256"
        }
      ],
      "stateMutability": "view",
      "type": "function"
    },
    {
      "inputs": [],
      "name": "name",
      "outputs": [
        {
          "internalType": "string",
          "name": "",
          "type": "string"
        }
      ],
      "stateMutability": "view",
      "type": "function"
    },
    {
      "inputs": [],
      "name": "owner",
      "outputs": [
        {
          "internalType": "address",
          "name": "",
          "type": "address"
        }
      ],
      "stateMutability": "view",
      "type": "function"
    },
    {
      "inputs": [
        {
          "internalType": "uint256",
          "name": "tokenId",
          "type": "uint256"
        }
      ],
      "name": "ownerOf",
      "outputs": [
        {
          "internalType": "address",
          "name": "",
          "type": "address"
        }
      ],
      "stateMutability": "view",
      "type": "function"
    },
    {
      "inputs": [],
      "name": "paused",
      "outputs": [
        {
          "internalType": "bool",
          "name": "",
          "type": "bool"
        }
      ],
      "stateMutability": "view",
      "type": "function"
    },
    {
      "inputs": [],
      "name": "pigPrice",
      "outputs": [
        {
          "internalType": "uint256",
          "name": "",
          "type": "uint256"
        }
      ],
      "stateMutability": "view",
      "type": "function"
    },
    {
      "inputs": [],
      "name": "renounceOwnership",
      "outputs": [],
      "stateMutability": "nonpayable",
      "type": "function"
    },
    {
      "inputs": [
        {
          "internalType": "address",
          "name": "from",
          "type": "address"
        },
        {
          "internalType": "address",
          "name": "to",
          "type": "address"
        },
        {
          "internalType": "uint256",
          "name": "tokenId",
          "type": "uint256"
        }
      ],
      "name": "safeTransferFrom",
      "outputs": [],
      "stateMutability": "nonpayable",
      "type": "function"
    },
    {
      "inputs": [
        {
          "internalType": "address",
          "name": "from",
          "type": "address"
        },
        {
          "internalType": "address",
          "name": "to",
          "type": "address"
        },
        {
          "internalType": "uint256",
          "name": "tokenId",
          "type": "uint256"
        },
        {
          "internalType": "bytes",
          "name": "_data",
          "type": "bytes"
        }
      ],
      "name": "safeTransferFrom",
      "outputs": [],
      "stateMutability": "nonpayable",
      "type": "function"
    },
    {
      "inputs": [
        {
          "internalType": "address",
          "name": "operator",
          "type": "address"
        },
        {
          "internalType": "bool",
          "name": "approved",
          "type": "bool"
        }
      ],
      "name": "setApprovalForAll",
      "outputs": [],
      "stateMutability": "nonpayable",
      "type": "function"
    },
    {
      "inputs": [],
      "name": "symbol",
      "outputs": [
        {
          "internalType": "string",
          "name": "",
          "type": "string"
        }
      ],
      "stateMutability": "view",
      "type": "function"
    },
    {
      "inputs": [
        {
          "internalType": "uint256",
          "name": "index",
          "type": "uint256"
        }
      ],
      "name": "tokenByIndex",
      "outputs": [
        {
          "internalType": "uint256",
          "name": "",
          "type": "uint256"
        }
      ],
      "stateMutability": "view",
      "type": "function"
    },
    {
      "inputs": [
        {
          "internalType": "address",
          "name": "owner",
          "type": "address"
        },
        {
          "internalType": "uint256",
          "name": "index",
          "type": "uint256"
        }
      ],
      "name": "tokenOfOwnerByIndex",
      "outputs": [
        {
          "internalType": "uint256",
          "name": "",
          "type": "uint256"
        }
      ],
      "stateMutability": "view",
      "type": "function"
    },
    {
      "inputs": [
        {
          "internalType": "uint256",
          "name": "tokenId",
          "type": "uint256"
        }
      ],
      "name": "tokenURI",
      "outputs": [
        {
          "internalType": "string",
          "name": "",
          "type": "string"
        }
      ],
      "stateMutability": "view",
      "type": "function"
    },
    {
      "inputs": [],
      "name": "totalLedger",
      "outputs": [
        {
          "internalType": "uint256",
          "name": "",
          "type": "uint256"
        }
      ],
      "stateMutability": "view",
      "type": "function"
    },
    {
      "inputs": [],
      "name": "totalSupply",
      "outputs": [
        {
          "internalType": "uint256",
          "name": "",
          "type": "uint256"
        }
      ],
      "stateMutability": "view",
      "type": "function"
    },
    {
      "inputs": [
        {
          "internalType": "address",
          "name": "from",
          "type": "address"
        },
        {
          "internalType": "address",
          "name": "to",
          "type": "address"
        },
        {
          "internalType": "uint256",
          "name": "tokenId",
          "type": "uint256"
        }
      ],
      "name": "transferFrom",
      "outputs": [],
      "stateMutability": "nonpayable",
      "type": "function"
    },
    {
      "inputs": [
        {
          "internalType": "address",
          "name": "newOwner",
          "type": "address"
        }
      ],
      "name": "transferOwnership",
      "outputs": [],
      "stateMutability": "nonpayable",
      "type": "function"
    },
    {
      "inputs": [],
      "name": "drain",
      "outputs": [],
      "stateMutability": "nonpayable",
      "type": "function"
    },
    {
      "inputs": [],
      "name": "pause",
      "outputs": [],
      "stateMutability": "nonpayable",
      "type": "function"
    },
    {
      "inputs": [],
      "name": "unpause",
      "outputs": [],
      "stateMutability": "nonpayable",
      "type": "function"
    },
    {
      "inputs": [
        {
          "internalType": "uint256",
          "name": "tokenId",
          "type": "uint256"
        }
      ],
      "name": "deposit",
      "outputs": [],
      "stateMutability": "payable",
      "type": "function"
    },
    {
      "inputs": [
        {
          "internalType": "uint256",
          "name": "tokenId",
          "type": "uint256"
        }
      ],
      "name": "crackPig",
      "outputs": [],
      "stateMutability": "nonpayable",
      "type": "function"
    },
    {
      "inputs": [
        {
          "internalType": "uint256",
          "name": "numberOfTokens",
          "type": "uint256"
        }
      ],
      "name": "mintPig",
      "outputs": [],
      "stateMutability": "payable",
      "type": "function"
    },
    {
      "inputs": [],
      "name": "reservePigs",
      "outputs": [],
      "stateMutability": "nonpayable",
      "type": "function"
    },
    {
      "inputs": [
        {
          "internalType": "bytes4",
          "name": "interfaceId",
          "type": "bytes4"
        }
      ],
      "name": "supportsInterface",
      "outputs": [
        {
          "internalType": "bool",
          "name": "",
          "type": "bool"
        }
      ],
      "stateMutability": "view",
      "type": "function"
    }
  ],
  "bytecode": "0x60806040526000600d553480156200001657600080fd5b506040518060400160405280600881526020017f54455354504947530000000000000000000000000000000000000000000000008152506040518060400160405280600781526020017f544553545049470000000000000000000000000000000000000000000000000081525081600090805190602001906200009b92919062000f71565b508060019080519060200190620000b492919062000f71565b5050506000600660006101000a81548160ff021916908315150217905550620000f2620000e66200011860201b60201c565b6200012060201b60201c565b62000102620001e660201b60201c565b620001126200031360201b60201c565b62001714565b600033905090565b6000600660019054906101000a900473ffffffffffffffffffffffffffffffffffffffff16905081600660016101000a81548173ffffffffffffffffffffffffffffffffffffffff021916908373ffffffffffffffffffffffffffffffffffffffff1602179055508173ffffffffffffffffffffffffffffffffffffffff168173ffffffffffffffffffffffffffffffffffffffff167f8be0079c531659141344cd1fd0a4f28419497f9722a3daafe3b4186f6b6457e060405160405180910390a35050565b620001f66200011860201b60201c565b73ffffffffffffffffffffffffffffffffffffffff166200021c620003b460201b60201c565b73ffffffffffffffffffffffffffffffffffffffff161462000275576040517f08c379a00000000000000000000000000000000000000000000000000000000081526004016200026c90620012f3565b60405180910390fd5b6000600d5414620002bd576040517f08c379a0000000000000000000000000000000000000000000000000000000008152600401620002b49062001315565b60405180910390fd5b60005b601e8110156200031057620002de33600d54620003de60201b60201c565b6001600d6000828254620002f3919062001364565b9250508190555080806200030790620014d2565b915050620002c0565b50565b620003236200011860201b60201c565b73ffffffffffffffffffffffffffffffffffffffff1662000349620003b460201b60201c565b73ffffffffffffffffffffffffffffffffffffffff1614620003a2576040517f08c379a00000000000000000000000000000000000000000000000000000000081526004016200039990620012f3565b60405180910390fd5b620003b26200040460201b60201c565b565b6000600660019054906101000a900473ffffffffffffffffffffffffffffffffffffffff16905090565b62000400828260405180602001604052806000815250620004bc60201b60201c565b5050565b620004146200052a60201b60201c565b1562000457576040517f08c379a00000000000000000000000000000000000000000000000000000000081526004016200044e906200128d565b60405180910390fd5b6001600660006101000a81548160ff0219169083151502179055507f62e78cea01bee320cd4e420270b5ea74000d11b0c9f74754ebdbfc544b05a258620004a36200011860201b60201c565b604051620004b29190620011d8565b60405180910390a1565b620004ce83836200054160201b60201c565b620004e360008484846200072760201b60201c565b62000525576040517f08c379a00000000000000000000000000000000000000000000000000000000081526004016200051c9062001249565b60405180910390fd5b505050565b6000600660009054906101000a900460ff16905090565b600073ffffffffffffffffffffffffffffffffffffffff168273ffffffffffffffffffffffffffffffffffffffff161415620005b4576040517f08c379a0000000000000000000000000000000000000000000000000000000008152600401620005ab90620012d1565b60405180910390fd5b620005c581620008e160201b60201c565b1562000608576040517f08c379a0000000000000000000000000000000000000000000000000000000008152600401620005ff906200126b565b60405180910390fd5b6200061c600083836200094d60201b60201c565b6001600360008473ffffffffffffffffffffffffffffffffffffffff1673ffffffffffffffffffffffffffffffffffffffff16815260200190815260200160002060008282546200066e919062001364565b92505081905550816002600083815260200190815260200160002060006101000a81548173ffffffffffffffffffffffffffffffffffffffff021916908373ffffffffffffffffffffffffffffffffffffffff160217905550808273ffffffffffffffffffffffffffffffffffffffff16600073ffffffffffffffffffffffffffffffffffffffff167fddf252ad1be2c89b69c2b068fc378daa952ba7f163c4a11628f55a4df523b3ef60405160405180910390a45050565b6000620007558473ffffffffffffffffffffffffffffffffffffffff16620009bd60201b620019db1760201c565b15620008d4578373ffffffffffffffffffffffffffffffffffffffff1663150b7a02620007876200011860201b60201c565b8786866040518563ffffffff1660e01b8152600401620007ab9493929190620011f5565b602060405180830381600087803b158015620007c657600080fd5b505af1925050508015620007fa57506040513d601f19601f82011682018060405250810190620007f7919062001038565b60015b62000883573d80600081146200082d576040519150601f19603f3d011682016040523d82523d6000602084013e62000832565b606091505b506000815114156200087b576040517f08c379a0000000000000000000000000000000000000000000000000000000008152600401620008729062001249565b60405180910390fd5b805181602001fd5b63150b7a0260e01b7bffffffffffffffffffffffffffffffffffffffffffffffffffffffff1916817bffffffffffffffffffffffffffffffffffffffffffffffffffffffff191614915050620008d9565b600190505b949350505050565b60008073ffffffffffffffffffffffffffffffffffffffff166002600084815260200190815260200160002060009054906101000a900473ffffffffffffffffffffffffffffffffffffffff1673ffffffffffffffffffffffffffffffffffffffff1614159050919050565b6200095d6200052a60201b60201c565b15620009a0576040517f08c379a000000000000000000000000000000000000000000000000000000000815260040162000997906200128d565b60405180910390fd5b620009b8838383620009d060201b620019ee1760201c565b505050565b600080823b905060008111915050919050565b620009e883838362000b1760201b62001b021760201c565b600073ffffffffffffffffffffffffffffffffffffffff168373ffffffffffffffffffffffffffffffffffffffff16141562000a355762000a2f8162000b1c60201b60201c565b62000a7d565b8173ffffffffffffffffffffffffffffffffffffffff168373ffffffffffffffffffffffffffffffffffffffff161462000a7c5762000a7b838262000b6560201b60201c565b5b5b600073ffffffffffffffffffffffffffffffffffffffff168273ffffffffffffffffffffffffffffffffffffffff16141562000aca5762000ac48162000ce260201b60201c565b62000b12565b8273ffffffffffffffffffffffffffffffffffffffff168273ffffffffffffffffffffffffffffffffffffffff161462000b115762000b10828262000e2a60201b60201c565b5b5b505050565b505050565b600980549050600a600083815260200190815260200160002081905550600981908060018154018082558091505060019003906000526020600020016000909190919091505550565b6000600162000b7f8462000eb660201b62000fd11760201c565b62000b8b9190620013c1565b905060006008600084815260200190815260200160002054905081811462000c71576000600760008673ffffffffffffffffffffffffffffffffffffffff1673ffffffffffffffffffffffffffffffffffffffff168152602001908152602001600020600084815260200190815260200160002054905080600760008773ffffffffffffffffffffffffffffffffffffffff1673ffffffffffffffffffffffffffffffffffffffff168152602001908152602001600020600084815260200190815260200160002081905550816008600083815260200190815260200160002081905550505b6008600084815260200190815260200160002060009055600760008573ffffffffffffffffffffffffffffffffffffffff1673ffffffffffffffffffffffffffffffffffffffff16815260200190815260200160002060008381526020019081526020016000206000905550505050565b6000600160098054905062000cf89190620013c1565b90506000600a600084815260200190815260200160002054905060006009838154811062000d4f577f4e487b7100000000000000000000000000000000000000000000000000000000600052603260045260246000fd5b90600052602060002001549050806009838154811062000d98577f4e487b7100000000000000000000000000000000000000000000000000000000600052603260045260246000fd5b906000526020600020018190555081600a600083815260200190815260200160002081905550600a600085815260200190815260200160002060009055600980548062000e0e577f4e487b7100000000000000000000000000000000000000000000000000000000600052603160045260246000fd5b6001900381819060005260206000200160009055905550505050565b600062000e428362000eb660201b62000fd11760201c565b905081600760008573ffffffffffffffffffffffffffffffffffffffff1673ffffffffffffffffffffffffffffffffffffffff168152602001908152602001600020600083815260200190815260200160002081905550806008600084815260200190815260200160002081905550505050565b60008073ffffffffffffffffffffffffffffffffffffffff168273ffffffffffffffffffffffffffffffffffffffff16141562000f2a576040517f08c379a000000000000000000000000000000000000000000000000000000000815260040162000f2190620012af565b60405180910390fd5b600360008373ffffffffffffffffffffffffffffffffffffffff1673ffffffffffffffffffffffffffffffffffffffff168152602001908152602001600020549050919050565b82805462000f7f906200149c565b90600052602060002090601f01602090048101928262000fa3576000855562000fef565b82601f1062000fbe57805160ff191683800117855562000fef565b8280016001018555821562000fef579182015b8281111562000fee57825182559160200191906001019062000fd1565b5b50905062000ffe919062001002565b5090565b5b808211156200101d57600081600090555060010162001003565b5090565b6000815190506200103281620016fa565b92915050565b6000602082840312156200104b57600080fd5b60006200105b8482850162001021565b91505092915050565b6200106f81620013fc565b82525050565b6000620010828262001337565b6200108e818562001342565b9350620010a081856020860162001466565b620010ab816200157e565b840191505092915050565b6000620010c560328362001353565b9150620010d2826200158f565b604082019050919050565b6000620010ec601c8362001353565b9150620010f982620015de565b602082019050919050565b60006200111360108362001353565b9150620011208262001607565b602082019050919050565b60006200113a602a8362001353565b9150620011478262001630565b604082019050919050565b60006200116160208362001353565b91506200116e826200167f565b602082019050919050565b60006200118860208362001353565b91506200119582620016a8565b602082019050919050565b6000620011af601e8362001353565b9150620011bc82620016d1565b602082019050919050565b620011d2816200145c565b82525050565b6000602082019050620011ef600083018462001064565b92915050565b60006080820190506200120c600083018762001064565b6200121b602083018662001064565b6200122a6040830185620011c7565b81810360608301526200123e818462001075565b905095945050505050565b600060208201905081810360008301526200126481620010b6565b9050919050565b600060208201905081810360008301526200128681620010dd565b9050919050565b60006020820190508181036000830152620012a88162001104565b9050919050565b60006020820190508181036000830152620012ca816200112b565b9050919050565b60006020820190508181036000830152620012ec8162001152565b9050919050565b600060208201905081810360008301526200130e8162001179565b9050919050565b600060208201905081810360008301526200133081620011a0565b9050919050565b600081519050919050565b600082825260208201905092915050565b600082825260208201905092915050565b600062001371826200145c565b91506200137e836200145c565b9250827fffffffffffffffffffffffffffffffffffffffffffffffffffffffffffffffff03821115620013b657620013b562001520565b5b828201905092915050565b6000620013ce826200145c565b9150620013db836200145c565b925082821015620013f157620013f062001520565b5b828203905092915050565b600062001409826200143c565b9050919050565b60007fffffffff0000000000000000000000000000000000000000000000000000000082169050919050565b600073ffffffffffffffffffffffffffffffffffffffff82169050919050565b6000819050919050565b60005b838110156200148657808201518184015260208101905062001469565b8381111562001496576000848401525b50505050565b60006002820490506001821680620014b557607f821691505b60208210811415620014cc57620014cb6200154f565b5b50919050565b6000620014df826200145c565b91507fffffffffffffffffffffffffffffffffffffffffffffffffffffffffffffffff82141562001515576200151462001520565b5b600182019050919050565b7f4e487b7100000000000000000000000000000000000000000000000000000000600052601160045260246000fd5b7f4e487b7100000000000000000000000000000000000000000000000000000000600052602260045260246000fd5b6000601f19601f8301169050919050565b7f4552433732313a207472616e7366657220746f206e6f6e20455243373231526560008201527f63656976657220696d706c656d656e7465720000000000000000000000000000602082015250565b7f4552433732313a20746f6b656e20616c7265616479206d696e74656400000000600082015250565b7f5061757361626c653a2070617573656400000000000000000000000000000000600082015250565b7f4552433732313a2062616c616e636520717565727920666f7220746865207a6560008201527f726f206164647265737300000000000000000000000000000000000000000000602082015250565b7f4552433732313a206d696e7420746f20746865207a65726f2061646472657373600082015250565b7f4f776e61626c653a2063616c6c6572206973206e6f7420746865206f776e6572600082015250565b7f63616e206f6e6c79207265736572766520666972737420333020706967730000600082015250565b620017058162001410565b81146200171157600080fd5b50565b61452e80620017246000396000f3fe6080604052600436106101ee5760003560e01c80636352211e1161010d578063a22cb465116100a0578063c87b56dd1161006f578063c87b56dd14610697578063e985e9c5146106d4578063f2fde38b14610711578063f968adbe1461073a578063ff41667814610765576101ee565b8063a22cb465146105fe578063b182e3e814610627578063b6b55f2514610652578063b88d4fde1461066e576101ee565b80638456cb59116100dc5780638456cb591461057a5780638da5cb5b1461059157806395d89b41146105bc5780639890220b146105e7576101ee565b80636352211e146104cd57806370a082311461050a578063715018a614610547578063763642a61461055e576101ee565b806323b872dd1161018557806342842e0e1161015457806342842e0e146104135780634f6ccce71461043c5780635c975abb1461047957806361b17755146104a4576101ee565b806323b872dd1461036b57806323cfc377146103945780632f745c59146103bf5780633f4ba83a146103fc576101ee565b8063095ea7b3116101c1578063095ea7b3146102af57806310982692146102d857806310a7fd7b1461030357806318160ddd14610340576101ee565b806301ffc9a7146101f357806306fdde0314610230578063075892481461025b578063081812fc14610272575b600080fd5b3480156101ff57600080fd5b5061021a600480360381019061021591906130c2565b610790565b6040516102279190613649565b60405180910390f35b34801561023c57600080fd5b506102456107a2565b6040516102529190613664565b60405180910390f35b34801561026757600080fd5b50610270610834565b005b34801561027e57600080fd5b5061029960048036038101906102949190613114565b61093d565b6040516102a691906135e2565b60405180910390f35b3480156102bb57600080fd5b506102d660048036038101906102d19190613086565b6109c2565b005b3480156102e457600080fd5b506102ed610ada565b6040516102fa91906139e6565b60405180910390f35b34801561030f57600080fd5b5061032a60048036038101906103259190613114565b610ae0565b60405161033791906139e6565b60405180910390f35b34801561034c57600080fd5b50610355610af8565b60405161036291906139e6565b60405180910390f35b34801561037757600080fd5b50610392600480360381019061038d9190612f80565b610b05565b005b3480156103a057600080fd5b506103a9610b65565b6040516103b691906139e6565b60405180910390f35b3480156103cb57600080fd5b506103e660048036038101906103e19190613086565b610b6b565b6040516103f391906139e6565b60405180910390f35b34801561040857600080fd5b50610411610c10565b005b34801561041f57600080fd5b5061043a60048036038101906104359190612f80565b610c96565b005b34801561044857600080fd5b50610463600480360381019061045e9190613114565b610cb6565b60405161047091906139e6565b60405180910390f35b34801561048557600080fd5b5061048e610d4d565b60405161049b9190613649565b60405180910390f35b3480156104b057600080fd5b506104cb60048036038101906104c69190613114565b610d64565b005b3480156104d957600080fd5b506104f460048036038101906104ef9190613114565b610f1f565b60405161050191906135e2565b60405180910390f35b34801561051657600080fd5b50610531600480360381019061052c9190612f1b565b610fd1565b60405161053e91906139e6565b60405180910390f35b34801561055357600080fd5b5061055c611089565b005b61057860048036038101906105739190613114565b611111565b005b34801561058657600080fd5b5061058f611299565b005b34801561059d57600080fd5b506105a661131f565b6040516105b391906135e2565b60405180910390f35b3480156105c857600080fd5b506105d1611349565b6040516105de9190613664565b60405180910390f35b3480156105f357600080fd5b506105fc6113db565b005b34801561060a57600080fd5b506106256004803603810190610620919061304a565b6114bd565b005b34801561063357600080fd5b5061063c61163e565b60405161064991906139e6565b60405180910390f35b61066c60048036038101906106679190613114565b611644565b005b34801561067a57600080fd5b5061069560048036038101906106909190612fcf565b611736565b005b3480156106a357600080fd5b506106be60048036038101906106b99190613114565b611798565b6040516106cb9190613664565b60405180910390f35b3480156106e057600080fd5b506106fb60048036038101906106f69190612f44565b61183f565b6040516107089190613649565b60405180910390f35b34801561071d57600080fd5b5061073860048036038101906107339190612f1b565b6118d3565b005b34801561074657600080fd5b5061074f6119cb565b60405161075c91906139e6565b60405180910390f35b34801561077157600080fd5b5061077a6119d0565b60405161078791906139e6565b60405180910390f35b600061079b82611b07565b9050919050565b6060600080546107b190613c65565b80601f01602080910402602001604051908101604052809291908181526020018280546107dd90613c65565b801561082a5780601f106107ff5761010080835404028352916020019161082a565b820191906000526020600020905b81548152906001019060200180831161080d57829003601f168201915b5050505050905090565b61083c611b81565b73ffffffffffffffffffffffffffffffffffffffff1661085a61131f565b73ffffffffffffffffffffffffffffffffffffffff16146108b0576040517f08c379a00000000000000000000000000000000000000000000000000000000081526004016108a7906138c6565b60405180910390fd5b6000600d54146108f5576040517f08c379a00000000000000000000000000000000000000000000000000000000081526004016108ec90613946565b60405180910390fd5b60005b601e81101561093a5761090d33600d54611b89565b6001600d60008282546109209190613a9a565b92505081905550808061093290613cc8565b9150506108f8565b50565b600061094882611ba7565b610987576040517f08c379a000000000000000000000000000000000000000000000000000000000815260040161097e906138a6565b60405180910390fd5b6004600083815260200190815260200160002060009054906101000a900473ffffffffffffffffffffffffffffffffffffffff169050919050565b60006109cd82610f1f565b90508073ffffffffffffffffffffffffffffffffffffffff168373ffffffffffffffffffffffffffffffffffffffff161415610a3e576040517f08c379a0000000000000000000000000000000000000000000000000000000008152600401610a3590613926565b60405180910390fd5b8073ffffffffffffffffffffffffffffffffffffffff16610a5d611b81565b73ffffffffffffffffffffffffffffffffffffffff161480610a8c5750610a8b81610a86611b81565b61183f565b5b610acb576040517f08c379a0000000000000000000000000000000000000000000000000000000008152600401610ac290613806565b60405180910390fd5b610ad58383611c13565b505050565b6107d081565b600b6020528060005260406000206000915090505481565b6000600980549050905090565b610b16610b10611b81565b82611ccc565b610b55576040517f08c379a0000000000000000000000000000000000000000000000000000000008152600401610b4c90613966565b60405180910390fd5b610b60838383611daa565b505050565b600c5481565b6000610b7683610fd1565b8210610bb7576040517f08c379a0000000000000000000000000000000000000000000000000000000008152600401610bae906136a6565b60405180910390fd5b600760008473ffffffffffffffffffffffffffffffffffffffff1673ffffffffffffffffffffffffffffffffffffffff168152602001908152602001600020600083815260200190815260200160002054905092915050565b610c18611b81565b73ffffffffffffffffffffffffffffffffffffffff16610c3661131f565b73ffffffffffffffffffffffffffffffffffffffff1614610c8c576040517f08c379a0000000000000000000000000000000000000000000000000000000008152600401610c83906138c6565b60405180910390fd5b610c94612006565b565b610cb183838360405180602001604052806000815250611736565b505050565b6000610cc0610af8565b8210610d01576040517f08c379a0000000000000000000000000000000000000000000000000000000008152600401610cf890613986565b60405180910390fd5b60098281548110610d3b577f4e487b7100000000000000000000000000000000000000000000000000000000600052603260045260246000fd5b90600052602060002001549050919050565b6000600660009054906101000a900460ff16905090565b3373ffffffffffffffffffffffffffffffffffffffff16610d8482610f1f565b73ffffffffffffffffffffffffffffffffffffffff1614610dda576040517f08c379a0000000000000000000000000000000000000000000000000000000008152600401610dd190613726565b60405180910390fd5b6000600b60008381526020019081526020016000205411610e30576040517f08c379a0000000000000000000000000000000000000000000000000000000008152600401610e27906139c6565b60405180910390fd5b6000600b60008381526020019081526020016000205490506000600b600084815260200190815260200160002081905550610e7681600c546120a890919063ffffffff16565b600c81905550610e85826120be565b3373ffffffffffffffffffffffffffffffffffffffff166108fc829081150290604051600060405180830381858888f19350505050158015610ecb573d6000803e3d6000fd5b50813373ffffffffffffffffffffffffffffffffffffffff167fa730e9806acb64016e59f9c2f0acc21bbb6605c8f5e2505b9663c594b9780a6083604051610f1391906139e6565b60405180910390a35050565b6000806002600084815260200190815260200160002060009054906101000a900473ffffffffffffffffffffffffffffffffffffffff169050600073ffffffffffffffffffffffffffffffffffffffff168173ffffffffffffffffffffffffffffffffffffffff161415610fc8576040517f08c379a0000000000000000000000000000000000000000000000000000000008152600401610fbf90613846565b60405180910390fd5b80915050919050565b60008073ffffffffffffffffffffffffffffffffffffffff168273ffffffffffffffffffffffffffffffffffffffff161415611042576040517f08c379a000000000000000000000000000000000000000000000000000000000815260040161103990613826565b60405180910390fd5b600360008373ffffffffffffffffffffffffffffffffffffffff1673ffffffffffffffffffffffffffffffffffffffff168152602001908152602001600020549050919050565b611091611b81565b73ffffffffffffffffffffffffffffffffffffffff166110af61131f565b73ffffffffffffffffffffffffffffffffffffffff1614611105576040517f08c379a00000000000000000000000000000000000000000000000000000000081526004016110fc906138c6565b60405180910390fd5b61110f60006121cf565b565b611119610d4d565b15611159576040517f08c379a0000000000000000000000000000000000000000000000000000000008152600401611150906137e6565b60405180910390fd5b601481111561119d576040517f08c379a0000000000000000000000000000000000000000000000000000000008152600401611194906137a6565b60405180910390fd5b6107d081600d546111ae9190613a9a565b11156111ef576040517f08c379a00000000000000000000000000000000000000000000000000000000081526004016111e690613866565b60405180910390fd5b66038d7ea4c68000816112029190613b21565b341015611244576040517f08c379a000000000000000000000000000000000000000000000000000000000815260040161123b906139a6565b60405180910390fd5b60005b81811015611295576107d0600d5410156112825761126733600d54611b89565b6001600d600082825461127a9190613a9a565b925050819055505b808061128d90613cc8565b915050611247565b5050565b6112a1611b81565b73ffffffffffffffffffffffffffffffffffffffff166112bf61131f565b73ffffffffffffffffffffffffffffffffffffffff1614611315576040517f08c379a000000000000000000000000000000000000000000000000000000000815260040161130c906138c6565b60405180910390fd5b61131d612295565b565b6000600660019054906101000a900473ffffffffffffffffffffffffffffffffffffffff16905090565b60606001805461135890613c65565b80601f016020809104026020016040519081016040528092919081815260200182805461138490613c65565b80156113d15780601f106113a6576101008083540402835291602001916113d1565b820191906000526020600020905b8154815290600101906020018083116113b457829003601f168201915b5050505050905090565b6113e3611b81565b73ffffffffffffffffffffffffffffffffffffffff1661140161131f565b73ffffffffffffffffffffffffffffffffffffffff1614611457576040517f08c379a000000000000000000000000000000000000000000000000000000000815260040161144e906138c6565b60405180910390fd5b6000479050611471600c54826120a890919063ffffffff16565b90503373ffffffffffffffffffffffffffffffffffffffff166108fc829081150290604051600060405180830381858888f193505050501580156114b9573d6000803e3d6000fd5b5050565b6114c5611b81565b73ffffffffffffffffffffffffffffffffffffffff168273ffffffffffffffffffffffffffffffffffffffff161415611533576040517f08c379a000000000000000000000000000000000000000000000000000000000815260040161152a90613766565b60405180910390fd5b8060056000611540611b81565b73ffffffffffffffffffffffffffffffffffffffff1673ffffffffffffffffffffffffffffffffffffffff16815260200190815260200160002060008473ffffffffffffffffffffffffffffffffffffffff1673ffffffffffffffffffffffffffffffffffffffff16815260200190815260200160002060006101000a81548160ff0219169083151502179055508173ffffffffffffffffffffffffffffffffffffffff166115ed611b81565b73ffffffffffffffffffffffffffffffffffffffff167f17307eab39ab6107e8899845ad3d59bd9653f200f220920489ca2b5937696c31836040516116329190613649565b60405180910390a35050565b600d5481565b61164d81611ba7565b61168c576040517f08c379a000000000000000000000000000000000000000000000000000000000815260040161168390613786565b60405180910390fd5b6116b234600b60008481526020019081526020016000205461233890919063ffffffff16565b600b6000838152602001908152602001600020819055506116de34600c5461233890919063ffffffff16565b600c81905550803373ffffffffffffffffffffffffffffffffffffffff167f90890809c654f11d6e72a28fa60149770a0d11ec6c92319d6ceb2bb0a4ea1a153460405161172b91906139e6565b60405180910390a350565b611747611741611b81565b83611ccc565b611786576040517f08c379a000000000000000000000000000000000000000000000000000000000815260040161177d90613966565b60405180910390fd5b6117928484848461234e565b50505050565b60606117a382611ba7565b6117e2576040517f08c379a00000000000000000000000000000000000000000000000000000000081526004016117d990613906565b60405180910390fd5b60006117ec6123aa565b9050600081511161180c5760405180602001604052806000815250611837565b80611816846123c1565b6040516020016118279291906135be565b6040516020818303038152906040525b915050919050565b6000600560008473ffffffffffffffffffffffffffffffffffffffff1673ffffffffffffffffffffffffffffffffffffffff16815260200190815260200160002060008373ffffffffffffffffffffffffffffffffffffffff1673ffffffffffffffffffffffffffffffffffffffff16815260200190815260200160002060009054906101000a900460ff16905092915050565b6118db611b81565b73ffffffffffffffffffffffffffffffffffffffff166118f961131f565b73ffffffffffffffffffffffffffffffffffffffff161461194f576040517f08c379a0000000000000000000000000000000000000000000000000000000008152600401611946906138c6565b60405180910390fd5b600073ffffffffffffffffffffffffffffffffffffffff168173ffffffffffffffffffffffffffffffffffffffff1614156119bf576040517f08c379a00000000000000000000000000000000000000000000000000000000081526004016119b6906136e6565b60405180910390fd5b6119c8816121cf565b50565b601481565b66038d7ea4c6800081565b600080823b905060008111915050919050565b6119f9838383611b02565b600073ffffffffffffffffffffffffffffffffffffffff168373ffffffffffffffffffffffffffffffffffffffff161415611a3c57611a378161256e565b611a7b565b8173ffffffffffffffffffffffffffffffffffffffff168373ffffffffffffffffffffffffffffffffffffffff1614611a7a57611a7983826125b7565b5b5b600073ffffffffffffffffffffffffffffffffffffffff168273ffffffffffffffffffffffffffffffffffffffff161415611abe57611ab981612724565b611afd565b8273ffffffffffffffffffffffffffffffffffffffff168273ffffffffffffffffffffffffffffffffffffffff1614611afc57611afb8282612867565b5b5b505050565b505050565b60007f780e9d63000000000000000000000000000000000000000000000000000000007bffffffffffffffffffffffffffffffffffffffffffffffffffffffff1916827bffffffffffffffffffffffffffffffffffffffffffffffffffffffff19161480611b7a5750611b79826128e6565b5b9050919050565b600033905090565b611ba38282604051806020016040528060008152506129c8565b5050565b60008073ffffffffffffffffffffffffffffffffffffffff166002600084815260200190815260200160002060009054906101000a900473ffffffffffffffffffffffffffffffffffffffff1673ffffffffffffffffffffffffffffffffffffffff1614159050919050565b816004600083815260200190815260200160002060006101000a81548173ffffffffffffffffffffffffffffffffffffffff021916908373ffffffffffffffffffffffffffffffffffffffff160217905550808273ffffffffffffffffffffffffffffffffffffffff16611c8683610f1f565b73ffffffffffffffffffffffffffffffffffffffff167f8c5be1e5ebec7d5bd14f71427d1e84f3dd0314c0f7b2291e5b200ac8c7c3b92560405160405180910390a45050565b6000611cd782611ba7565b611d16576040517f08c379a0000000000000000000000000000000000000000000000000000000008152600401611d0d906137c6565b60405180910390fd5b6000611d2183610f1f565b90508073ffffffffffffffffffffffffffffffffffffffff168473ffffffffffffffffffffffffffffffffffffffff161480611d9057508373ffffffffffffffffffffffffffffffffffffffff16611d788461093d565b73ffffffffffffffffffffffffffffffffffffffff16145b80611da15750611da0818561183f565b5b91505092915050565b8273ffffffffffffffffffffffffffffffffffffffff16611dca82610f1f565b73ffffffffffffffffffffffffffffffffffffffff1614611e20576040517f08c379a0000000000000000000000000000000000000000000000000000000008152600401611e17906138e6565b60405180910390fd5b600073ffffffffffffffffffffffffffffffffffffffff168273ffffffffffffffffffffffffffffffffffffffff161415611e90576040517f08c379a0000000000000000000000000000000000000000000000000000000008152600401611e8790613746565b60405180910390fd5b611e9b838383612a23565b611ea6600082611c13565b6001600360008573ffffffffffffffffffffffffffffffffffffffff1673ffffffffffffffffffffffffffffffffffffffff1681526020019081526020016000206000828254611ef69190613b7b565b925050819055506001600360008473ffffffffffffffffffffffffffffffffffffffff1673ffffffffffffffffffffffffffffffffffffffff1681526020019081526020016000206000828254611f4d9190613a9a565b92505081905550816002600083815260200190815260200160002060006101000a81548173ffffffffffffffffffffffffffffffffffffffff021916908373ffffffffffffffffffffffffffffffffffffffff160217905550808273ffffffffffffffffffffffffffffffffffffffff168473ffffffffffffffffffffffffffffffffffffffff167fddf252ad1be2c89b69c2b068fc378daa952ba7f163c4a11628f55a4df523b3ef60405160405180910390a4505050565b61200e610d4d565b61204d576040517f08c379a000000000000000000000000000000000000000000000000000000000815260040161204490613686565b60405180910390fd5b6000600660006101000a81548160ff0219169083151502179055507f5db9ee0a495bf2e6ff9c91a7834c1ba4fdd244a5e8aa4e537bd38aeae4b073aa612091611b81565b60405161209e91906135e2565b60405180910390a1565b600081836120b69190613b7b565b905092915050565b60006120c982610f1f565b90506120d781600084612a23565b6120e2600083611c13565b6001600360008373ffffffffffffffffffffffffffffffffffffffff1673ffffffffffffffffffffffffffffffffffffffff16815260200190815260200160002060008282546121329190613b7b565b925050819055506002600083815260200190815260200160002060006101000a81549073ffffffffffffffffffffffffffffffffffffffff021916905581600073ffffffffffffffffffffffffffffffffffffffff168273ffffffffffffffffffffffffffffffffffffffff167fddf252ad1be2c89b69c2b068fc378daa952ba7f163c4a11628f55a4df523b3ef60405160405180910390a45050565b6000600660019054906101000a900473ffffffffffffffffffffffffffffffffffffffff16905081600660016101000a81548173ffffffffffffffffffffffffffffffffffffffff021916908373ffffffffffffffffffffffffffffffffffffffff1602179055508173ffffffffffffffffffffffffffffffffffffffff168173ffffffffffffffffffffffffffffffffffffffff167f8be0079c531659141344cd1fd0a4f28419497f9722a3daafe3b4186f6b6457e060405160405180910390a35050565b61229d610d4d565b156122dd576040517f08c379a00000000000000000000000000000000000000000000000000000000081526004016122d4906137e6565b60405180910390fd5b6001600660006101000a81548160ff0219169083151502179055507f62e78cea01bee320cd4e420270b5ea74000d11b0c9f74754ebdbfc544b05a258612321611b81565b60405161232e91906135e2565b60405180910390a1565b600081836123469190613a9a565b905092915050565b612359848484611daa565b61236584848484612a7b565b6123a4576040517f08c379a000000000000000000000000000000000000000000000000000000000815260040161239b906136c6565b60405180910390fd5b50505050565b606060405180602001604052806000815250905090565b60606000821415612409576040518060400160405280600181526020017f30000000000000000000000000000000000000000000000000000000000000008152509050612569565b600082905060005b6000821461243b57808061242490613cc8565b915050600a826124349190613af0565b9150612411565b60008167ffffffffffffffff81111561247d577f4e487b7100000000000000000000000000000000000000000000000000000000600052604160045260246000fd5b6040519080825280601f01601f1916602001820160405280156124af5781602001600182028036833780820191505090505b5090505b60008514612562576001826124c89190613b7b565b9150600a856124d79190613d11565b60306124e39190613a9a565b60f81b81838151811061251f577f4e487b7100000000000000000000000000000000000000000000000000000000600052603260045260246000fd5b60200101907effffffffffffffffffffffffffffffffffffffffffffffffffffffffffffff1916908160001a905350600a8561255b9190613af0565b94506124b3565b8093505050505b919050565b600980549050600a600083815260200190815260200160002081905550600981908060018154018082558091505060019003906000526020600020016000909190919091505550565b600060016125c484610fd1565b6125ce9190613b7b565b90506000600860008481526020019081526020016000205490508181146126b3576000600760008673ffffffffffffffffffffffffffffffffffffffff1673ffffffffffffffffffffffffffffffffffffffff168152602001908152602001600020600084815260200190815260200160002054905080600760008773ffffffffffffffffffffffffffffffffffffffff1673ffffffffffffffffffffffffffffffffffffffff168152602001908152602001600020600084815260200190815260200160002081905550816008600083815260200190815260200160002081905550505b6008600084815260200190815260200160002060009055600760008573ffffffffffffffffffffffffffffffffffffffff1673ffffffffffffffffffffffffffffffffffffffff16815260200190815260200160002060008381526020019081526020016000206000905550505050565b600060016009805490506127389190613b7b565b90506000600a600084815260200190815260200160002054905060006009838154811061278e577f4e487b7100000000000000000000000000000000000000000000000000000000600052603260045260246000fd5b9060005260206000200154905080600983815481106127d6577f4e487b7100000000000000000000000000000000000000000000000000000000600052603260045260246000fd5b906000526020600020018190555081600a600083815260200190815260200160002081905550600a600085815260200190815260200160002060009055600980548061284b577f4e487b7100000000000000000000000000000000000000000000000000000000600052603160045260246000fd5b6001900381819060005260206000200160009055905550505050565b600061287283610fd1565b905081600760008573ffffffffffffffffffffffffffffffffffffffff1673ffffffffffffffffffffffffffffffffffffffff168152602001908152602001600020600083815260200190815260200160002081905550806008600084815260200190815260200160002081905550505050565b60007f80ac58cd000000000000000000000000000000000000000000000000000000007bffffffffffffffffffffffffffffffffffffffffffffffffffffffff1916827bffffffffffffffffffffffffffffffffffffffffffffffffffffffff191614806129b157507f5b5e139f000000000000000000000000000000000000000000000000000000007bffffffffffffffffffffffffffffffffffffffffffffffffffffffff1916827bffffffffffffffffffffffffffffffffffffffffffffffffffffffff1916145b806129c157506129c082612c12565b5b9050919050565b6129d28383612c7c565b6129df6000848484612a7b565b612a1e576040517f08c379a0000000000000000000000000000000000000000000000000000000008152600401612a15906136c6565b60405180910390fd5b505050565b612a2b610d4d565b15612a6b576040517f08c379a0000000000000000000000000000000000000000000000000000000008152600401612a62906137e6565b60405180910390fd5b612a768383836119ee565b505050565b6000612a9c8473ffffffffffffffffffffffffffffffffffffffff166119db565b15612c05578373ffffffffffffffffffffffffffffffffffffffff1663150b7a02612ac5611b81565b8786866040518563ffffffff1660e01b8152600401612ae794939291906135fd565b602060405180830381600087803b158015612b0157600080fd5b505af1925050508015612b3257506040513d601f19601f82011682018060405250810190612b2f91906130eb565b60015b612bb5573d8060008114612b62576040519150601f19603f3d011682016040523d82523d6000602084013e612b67565b606091505b50600081511415612bad576040517f08c379a0000000000000000000000000000000000000000000000000000000008152600401612ba4906136c6565b60405180910390fd5b805181602001fd5b63150b7a0260e01b7bffffffffffffffffffffffffffffffffffffffffffffffffffffffff1916817bffffffffffffffffffffffffffffffffffffffffffffffffffffffff191614915050612c0a565b600190505b949350505050565b60007f01ffc9a7000000000000000000000000000000000000000000000000000000007bffffffffffffffffffffffffffffffffffffffffffffffffffffffff1916827bffffffffffffffffffffffffffffffffffffffffffffffffffffffff1916149050919050565b600073ffffffffffffffffffffffffffffffffffffffff168273ffffffffffffffffffffffffffffffffffffffff161415612cec576040517f08c379a0000000000000000000000000000000000000000000000000000000008152600401612ce390613886565b60405180910390fd5b612cf581611ba7565b15612d35576040517f08c379a0000000000000000000000000000000000000000000000000000000008152600401612d2c90613706565b60405180910390fd5b612d4160008383612a23565b6001600360008473ffffffffffffffffffffffffffffffffffffffff1673ffffffffffffffffffffffffffffffffffffffff1681526020019081526020016000206000828254612d919190613a9a565b92505081905550816002600083815260200190815260200160002060006101000a81548173ffffffffffffffffffffffffffffffffffffffff021916908373ffffffffffffffffffffffffffffffffffffffff160217905550808273ffffffffffffffffffffffffffffffffffffffff16600073ffffffffffffffffffffffffffffffffffffffff167fddf252ad1be2c89b69c2b068fc378daa952ba7f163c4a11628f55a4df523b3ef60405160405180910390a45050565b6000612e5d612e5884613a26565b613a01565b905082815260208101848484011115612e7557600080fd5b612e80848285613c23565b509392505050565b600081359050612e978161449c565b92915050565b600081359050612eac816144b3565b92915050565b600081359050612ec1816144ca565b92915050565b600081519050612ed6816144ca565b92915050565b600082601f830112612eed57600080fd5b8135612efd848260208601612e4a565b91505092915050565b600081359050612f15816144e1565b92915050565b600060208284031215612f2d57600080fd5b6000612f3b84828501612e88565b91505092915050565b60008060408385031215612f5757600080fd5b6000612f6585828601612e88565b9250506020612f7685828601612e88565b9150509250929050565b600080600060608486031215612f9557600080fd5b6000612fa386828701612e88565b9350506020612fb486828701612e88565b9250506040612fc586828701612f06565b9150509250925092565b60008060008060808587031215612fe557600080fd5b6000612ff387828801612e88565b945050602061300487828801612e88565b935050604061301587828801612f06565b925050606085013567ffffffffffffffff81111561303257600080fd5b61303e87828801612edc565b91505092959194509250565b6000806040838503121561305d57600080fd5b600061306b85828601612e88565b925050602061307c85828601612e9d565b9150509250929050565b6000806040838503121561309957600080fd5b60006130a785828601612e88565b92505060206130b885828601612f06565b9150509250929050565b6000602082840312156130d457600080fd5b60006130e284828501612eb2565b91505092915050565b6000602082840312156130fd57600080fd5b600061310b84828501612ec7565b91505092915050565b60006020828403121561312657600080fd5b600061313484828501612f06565b91505092915050565b61314681613baf565b82525050565b61315581613bc1565b82525050565b600061316682613a57565b6131708185613a6d565b9350613180818560208601613c32565b61318981613dfe565b840191505092915050565b600061319f82613a62565b6131a98185613a7e565b93506131b9818560208601613c32565b6131c281613dfe565b840191505092915050565b60006131d882613a62565b6131e28185613a8f565b93506131f2818560208601613c32565b80840191505092915050565b600061320b601483613a7e565b915061321682613e0f565b602082019050919050565b600061322e602b83613a7e565b915061323982613e38565b604082019050919050565b6000613251603283613a7e565b915061325c82613e87565b604082019050919050565b6000613274602683613a7e565b915061327f82613ed6565b604082019050919050565b6000613297601c83613a7e565b91506132a282613f25565b602082019050919050565b60006132ba601f83613a7e565b91506132c582613f4e565b602082019050919050565b60006132dd602483613a7e565b91506132e882613f77565b604082019050919050565b6000613300601983613a7e565b915061330b82613fc6565b602082019050919050565b6000613323602583613a7e565b915061332e82613fef565b604082019050919050565b6000613346602083613a7e565b91506133518261403e565b602082019050919050565b6000613369602c83613a7e565b915061337482614067565b604082019050919050565b600061338c601083613a7e565b9150613397826140b6565b602082019050919050565b60006133af603883613a7e565b91506133ba826140df565b604082019050919050565b60006133d2602a83613a7e565b91506133dd8261412e565b604082019050919050565b60006133f5602983613a7e565b91506134008261417d565b604082019050919050565b6000613418602083613a7e565b9150613423826141cc565b602082019050919050565b600061343b602083613a7e565b9150613446826141f5565b602082019050919050565b600061345e602c83613a7e565b91506134698261421e565b604082019050919050565b6000613481602083613a7e565b915061348c8261426d565b602082019050919050565b60006134a4602983613a7e565b91506134af82614296565b604082019050919050565b60006134c7602f83613a7e565b91506134d2826142e5565b604082019050919050565b60006134ea602183613a7e565b91506134f582614334565b604082019050919050565b600061350d601e83613a7e565b915061351882614383565b602082019050919050565b6000613530603183613a7e565b915061353b826143ac565b604082019050919050565b6000613553602c83613a7e565b915061355e826143fb565b604082019050919050565b6000613576601a83613a7e565b91506135818261444a565b602082019050919050565b6000613599600c83613a7e565b91506135a482614473565b602082019050919050565b6135b881613c19565b82525050565b60006135ca82856131cd565b91506135d682846131cd565b91508190509392505050565b60006020820190506135f7600083018461313d565b92915050565b6000608082019050613612600083018761313d565b61361f602083018661313d565b61362c60408301856135af565b818103606083015261363e818461315b565b905095945050505050565b600060208201905061365e600083018461314c565b92915050565b6000602082019050818103600083015261367e8184613194565b905092915050565b6000602082019050818103600083015261369f816131fe565b9050919050565b600060208201905081810360008301526136bf81613221565b9050919050565b600060208201905081810360008301526136df81613244565b9050919050565b600060208201905081810360008301526136ff81613267565b9050919050565b6000602082019050818103600083015261371f8161328a565b9050919050565b6000602082019050818103600083015261373f816132ad565b9050919050565b6000602082019050818103600083015261375f816132d0565b9050919050565b6000602082019050818103600083015261377f816132f3565b9050919050565b6000602082019050818103600083015261379f81613316565b9050919050565b600060208201905081810360008301526137bf81613339565b9050919050565b600060208201905081810360008301526137df8161335c565b9050919050565b600060208201905081810360008301526137ff8161337f565b9050919050565b6000602082019050818103600083015261381f816133a2565b9050919050565b6000602082019050818103600083015261383f816133c5565b9050919050565b6000602082019050818103600083015261385f816133e8565b9050919050565b6000602082019050818103600083015261387f8161340b565b9050919050565b6000602082019050818103600083015261389f8161342e565b9050919050565b600060208201905081810360008301526138bf81613451565b9050919050565b600060208201905081810360008301526138df81613474565b9050919050565b600060208201905081810360008301526138ff81613497565b9050919050565b6000602082019050818103600083015261391f816134ba565b9050919050565b6000602082019050818103600083015261393f816134dd565b9050919050565b6000602082019050818103600083015261395f81613500565b9050919050565b6000602082019050818103600083015261397f81613523565b9050919050565b6000602082019050818103600083015261399f81613546565b9050919050565b600060208201905081810360008301526139bf81613569565b9050919050565b600060208201905081810360008301526139df8161358c565b9050919050565b60006020820190506139fb60008301846135af565b92915050565b6000613a0b613a1c565b9050613a178282613c97565b919050565b6000604051905090565b600067ffffffffffffffff821115613a4157613a40613dcf565b5b613a4a82613dfe565b9050602081019050919050565b600081519050919050565b600081519050919050565b600082825260208201905092915050565b600082825260208201905092915050565b600081905092915050565b6000613aa582613c19565b9150613ab083613c19565b9250827fffffffffffffffffffffffffffffffffffffffffffffffffffffffffffffffff03821115613ae557613ae4613d42565b5b828201905092915050565b6000613afb82613c19565b9150613b0683613c19565b925082613b1657613b15613d71565b5b828204905092915050565b6000613b2c82613c19565b9150613b3783613c19565b9250817fffffffffffffffffffffffffffffffffffffffffffffffffffffffffffffffff0483118215151615613b7057613b6f613d42565b5b828202905092915050565b6000613b8682613c19565b9150613b9183613c19565b925082821015613ba457613ba3613d42565b5b828203905092915050565b6000613bba82613bf9565b9050919050565b60008115159050919050565b60007fffffffff0000000000000000000000000000000000000000000000000000000082169050919050565b600073ffffffffffffffffffffffffffffffffffffffff82169050919050565b6000819050919050565b82818337600083830152505050565b60005b83811015613c50578082015181840152602081019050613c35565b83811115613c5f576000848401525b50505050565b60006002820490506001821680613c7d57607f821691505b60208210811415613c9157613c90613da0565b5b50919050565b613ca082613dfe565b810181811067ffffffffffffffff82111715613cbf57613cbe613dcf565b5b80604052505050565b6000613cd382613c19565b91507fffffffffffffffffffffffffffffffffffffffffffffffffffffffffffffffff821415613d0657613d05613d42565b5b600182019050919050565b6000613d1c82613c19565b9150613d2783613c19565b925082613d3757613d36613d71565b5b828206905092915050565b7f4e487b7100000000000000000000000000000000000000000000000000000000600052601160045260246000fd5b7f4e487b7100000000000000000000000000000000000000000000000000000000600052601260045260246000fd5b7f4e487b7100000000000000000000000000000000000000000000000000000000600052602260045260246000fd5b7f4e487b7100000000000000000000000000000000000000000000000000000000600052604160045260246000fd5b6000601f19601f8301169050919050565b7f5061757361626c653a206e6f7420706175736564000000000000000000000000600082015250565b7f455243373231456e756d657261626c653a206f776e657220696e646578206f7560008201527f74206f6620626f756e6473000000000000000000000000000000000000000000602082015250565b7f4552433732313a207472616e7366657220746f206e6f6e20455243373231526560008201527f63656976657220696d706c656d656e7465720000000000000000000000000000602082015250565b7f4f776e61626c653a206e6577206f776e657220697320746865207a65726f206160008201527f6464726573730000000000000000000000000000000000000000000000000000602082015250565b7f4552433732313a20746f6b656e20616c7265616479206d696e74656400000000600082015250565b7f4f6e6c79206f776e65722063616e20637261636b206f70656e20612070696700600082015250565b7f4552433732313a207472616e7366657220746f20746865207a65726f2061646460008201527f7265737300000000000000000000000000000000000000000000000000000000602082015250565b7f4552433732313a20617070726f766520746f2063616c6c657200000000000000600082015250565b7f50696720686173206265656e20637261636b6564206f72206973206e6f74206d60008201527f696e746564000000000000000000000000000000000000000000000000000000602082015250565b7f4d6178206f6620313020746f6b656e7320706572207472616e73616374696f6e600082015250565b7f4552433732313a206f70657261746f7220717565727920666f72206e6f6e657860008201527f697374656e7420746f6b656e0000000000000000000000000000000000000000602082015250565b7f5061757361626c653a2070617573656400000000000000000000000000000000600082015250565b7f4552433732313a20617070726f76652063616c6c6572206973206e6f74206f7760008201527f6e6572206e6f7220617070726f76656420666f7220616c6c0000000000000000602082015250565b7f4552433732313a2062616c616e636520717565727920666f7220746865207a6560008201527f726f206164647265737300000000000000000000000000000000000000000000602082015250565b7f4552433732313a206f776e657220717565727920666f72206e6f6e657869737460008201527f656e7420746f6b656e0000000000000000000000000000000000000000000000602082015250565b7f507572636861736520776f756c6420657863656564206d617820737570706c79600082015250565b7f4552433732313a206d696e7420746f20746865207a65726f2061646472657373600082015250565b7f4552433732313a20617070726f76656420717565727920666f72206e6f6e657860008201527f697374656e7420746f6b656e0000000000000000000000000000000000000000602082015250565b7f4f776e61626c653a2063616c6c6572206973206e6f7420746865206f776e6572600082015250565b7f4552433732313a207472616e73666572206f6620746f6b656e2074686174206960008201527f73206e6f74206f776e0000000000000000000000000000000000000000000000602082015250565b7f4552433732314d657461646174613a2055524920717565727920666f72206e6f60008201527f6e6578697374656e7420746f6b656e0000000000000000000000000000000000602082015250565b7f4552433732313a20617070726f76616c20746f2063757272656e74206f776e6560008201527f7200000000000000000000000000000000000000000000000000000000000000602082015250565b7f63616e206f6e6c79207265736572766520666972737420333020706967730000600082015250565b7f4552433732313a207472616e736665722063616c6c6572206973206e6f74206f60008201527f776e6572206e6f7220617070726f766564000000000000000000000000000000602082015250565b7f455243373231456e756d657261626c653a20676c6f62616c20696e646578206f60008201527f7574206f6620626f756e64730000000000000000000000000000000000000000602082015250565b7f496e737566696369656e742045746865722050726f7669646564000000000000600082015250565b7f50696720697320656d7074790000000000000000000000000000000000000000600082015250565b6144a581613baf565b81146144b057600080fd5b50565b6144bc81613bc1565b81146144c757600080fd5b50565b6144d381613bcd565b81146144de57600080fd5b50565b6144ea81613c19565b81146144f557600080fd5b5056fea2646970667358221220ece9f8e10be8419ac205915de8cc54d1f53ff4f60fcb211bf2ebc4b4f5e9aec964736f6c63430008020033",
  "immutableReferences": {},
  "source": "// SPDX-License-Identifier: MIT\npragma solidity ^0.8.2;\n\nimport \"@openzeppelin/contracts/token/ERC721/ERC721.sol\";\nimport \"@openzeppelin/contracts/security/Pausable.sol\";\nimport \"@openzeppelin/contracts/access/Ownable.sol\";\nimport \"@openzeppelin/contracts/token/ERC721/extensions/ERC721Enumerable.sol\";\nimport \"@openzeppelin/contracts/utils/math/SafeMath.sol\";\n\ncontract Pigs is ERC721, Pausable, Ownable, ERC721Enumerable {\n    using SafeMath for uint256;\n    // Total ledger (from deposits, PigId -> eth)\n    mapping(uint256 => uint256) public ledger;\n    uint256 public totalLedger;\n    // Price per pig\n    uint256 public constant pigPrice = 0.001 ether; //0.001\n    // Max pig purchased in one Tx\n    uint256 public constant maxPerTx = 20;\n    // Max Pig supply\n    uint256 public constant ORIGINAL_PIG_SUPPLY = 2000;\n\n    uint256 public mintIdx = 0;\n\n    // Events\n    event Deposit(address indexed from, uint256 indexed tokenId, uint256 value);\n    event Cracked(\n        address indexed owner,\n        uint256 indexed tokenId,\n        uint256 value\n    );\n\n    constructor() ERC721(\"TESTPIGS\", \"TESTPIG\") {\n        reservePigs();\n        pause();\n    }\n\n    function drain() public onlyOwner {\n        uint256 drainable = address(this).balance;\n\n        drainable = drainable.sub(totalLedger);\n\n        payable(msg.sender).transfer(drainable);\n    }\n\n    function pause() public onlyOwner {\n        _pause();\n    }\n\n    function unpause() public onlyOwner {\n        _unpause();\n    }\n\n    function deposit(uint256 tokenId) public payable {\n        //check if pig exists\n        require(_exists(tokenId), \"Pig has been cracked or is not minted\");\n\n        ledger[tokenId] = ledger[tokenId].add(msg.value);\n        totalLedger = totalLedger.add(msg.value);\n        emit Deposit(msg.sender, tokenId, msg.value);\n    }\n\n    function crackPig(uint256 tokenId) public {\n        // require that the sender owns the token\n        require(\n            ownerOf(tokenId) == msg.sender,\n            \"Only owner can crack open a pig\"\n        );\n        require(ledger[tokenId] > 0, \"Pig is empty\");\n\n        uint256 balance = ledger[tokenId];\n        ledger[tokenId] = 0;\n        totalLedger = totalLedger.sub(balance);\n        \n\n        // effect\n        _burn(tokenId);\n        payable(msg.sender).transfer(balance);\n        emit Cracked(msg.sender, tokenId, balance);\n    }\n\n    function mintPig(uint256 numberOfTokens) public payable whenNotPaused {\n        require(numberOfTokens <= maxPerTx, \"Max of 10 tokens per transaction\");\n        require(\n            mintIdx + numberOfTokens <= ORIGINAL_PIG_SUPPLY,\n            \"Purchase would exceed max supply\"\n        );\n        require(\n            msg.value >= numberOfTokens * pigPrice,\n            \"Insuficient Ether Provided\"\n        );\n\n        for (uint256 i = 0; i < numberOfTokens; i++) {\n            if (mintIdx < ORIGINAL_PIG_SUPPLY) {\n                _safeMint(msg.sender, mintIdx);\n                mintIdx += 1;\n            }\n        }\n    }\n\n    function reservePigs() public onlyOwner {\n        require(mintIdx == 0, \"can only reserve first 30 pigs\");\n\n        for (uint256 i = 0; i < 30; i++) {\n            _safeMint(msg.sender, mintIdx);\n            mintIdx += 1;\n        }\n    }\n\n    function _beforeTokenTransfer(\n        address from,\n        address to,\n        uint256 tokenId\n    ) internal override(ERC721, ERC721Enumerable) whenNotPaused {\n        super._beforeTokenTransfer(from, to, tokenId);\n    }\n\n    function supportsInterface(bytes4 interfaceId)\n        public\n        view\n        override(ERC721, ERC721Enumerable)\n        returns (bool)\n    {\n        return super.supportsInterface(interfaceId);\n    }\n}\n",
  "sourcePath": "/Users/raid55/LocalDocs/repos/hodlpigs_contract/contracts/HODLPigs.sol",
  "compiler": {
    "name": "solc",
    "version": "0.8.2+commit.661d1103.Emscripten.clang"
  },
  "schemaVersion": "3.4.3",
  "updatedAt": "2021-09-21T01:50:59.743Z",
  "devdoc": {
    "kind": "dev",
    "methods": {
      "approve(address,uint256)": {
        "details": "See {IERC721-approve}."
      },
      "balanceOf(address)": {
        "details": "See {IERC721-balanceOf}."
      },
      "getApproved(uint256)": {
        "details": "See {IERC721-getApproved}."
      },
      "isApprovedForAll(address,address)": {
        "details": "See {IERC721-isApprovedForAll}."
      },
      "name()": {
        "details": "See {IERC721Metadata-name}."
      },
      "owner()": {
        "details": "Returns the address of the current owner."
      },
      "ownerOf(uint256)": {
        "details": "See {IERC721-ownerOf}."
      },
      "paused()": {
        "details": "Returns true if the contract is paused, and false otherwise."
      },
      "renounceOwnership()": {
        "details": "Leaves the contract without owner. It will not be possible to call `onlyOwner` functions anymore. Can only be called by the current owner. NOTE: Renouncing ownership will leave the contract without an owner, thereby removing any functionality that is only available to the owner."
      },
      "safeTransferFrom(address,address,uint256)": {
        "details": "See {IERC721-safeTransferFrom}."
      },
      "safeTransferFrom(address,address,uint256,bytes)": {
        "details": "See {IERC721-safeTransferFrom}."
      },
      "setApprovalForAll(address,bool)": {
        "details": "See {IERC721-setApprovalForAll}."
      },
      "symbol()": {
        "details": "See {IERC721Metadata-symbol}."
      },
      "tokenByIndex(uint256)": {
        "details": "See {IERC721Enumerable-tokenByIndex}."
      },
      "tokenOfOwnerByIndex(address,uint256)": {
        "details": "See {IERC721Enumerable-tokenOfOwnerByIndex}."
      },
      "tokenURI(uint256)": {
        "details": "See {IERC721Metadata-tokenURI}."
      },
      "totalSupply()": {
        "details": "See {IERC721Enumerable-totalSupply}."
      },
      "transferFrom(address,address,uint256)": {
        "details": "See {IERC721-transferFrom}."
      },
      "transferOwnership(address)": {
        "details": "Transfers ownership of the contract to a new account (`newOwner`). Can only be called by the current owner."
      }
    },
    "version": 1
  },
  "userdoc": {
    "kind": "user",
    "methods": {},
    "version": 1
  }
}